:100000000428FF3FFF3FFF3FF830031383168500AE
:10001000FF308600813087008B010317880189013A
:100020000313831285018601193083169900181570
:100030008A1533208A110A30831693008A157A2094
:100040008A118A156D208A117008003C0318992ABC
:100050002130B8002F30B400B5013430B9009B25F1
:100060002130B800E3237008A8007108A90080308F
:10007000033AF300803071067302031D41287008B3
:10008000E73CFF3003180030F30080307106F200C7
:100090008030103A7202031D4F28A0307002FF30EA
:1000A00003180030F20072087305F00003196A2A81
:1000B00080302906F2008030033A7202031D622864
:1000C000E8302802FF30031C0030F200803029069F
:1000D000F0008030043A7002031D7028E8302802D6
:1000E000FF3003180030F0007208F0050319D8281B
:1000F000E8302802F0000330031C013F2902F10020
:100100007008A8007108A9006430F400F501E22528
:10011000FF30F400F50141257008AA007108AB001A
:100120008030F200803071067202031D9928700839
:10013000633C03189E286330AA00AB010A30F40028
:10014000F5012A08F0002B08F10041257008B600DF
:100150007108B7003608AC003708AD003608F0006B
:100160003708F1000A30F400F501E22570082A0290
:10017000F0007108031C013F2B02F1007008AE0073
:100180007108AF000430F40074080319CC28F00D96
:10019000F10D7010FF3FC52870083607B000370812
:1001A0000318013F7107B1004230B200B3019A2237
:1001B0008030031383122906F2008030073A72025E
:1001C000031DE428D0302802FF30031C0030F20069
:1001D00080302906F0008030083A7002031DF228B2
:1001E000D0302802FF3003180030F0007208F0050C
:1001F00003195A29D0302802F0000730031C013FB0
:100200002902F1007008A8007108A9006430F40008
:10021000F501E225FF30F400F50141257008AA0040
:100220007108AB008030F200803071067202031D4D
:100230001B297008633C031820296330AA00AB0116
:100240000A30F400F5012A08F0002B08F1004125DE
:100250007008B6007108B7003608AC003708AD006A
:100260003608F0003708F1000A30F400F501E22505
:1002700070082A02F0007108031C013F2B02F100F4
:100280007008AE007108AF000430F4007408031960
:100290004E29F00DF10D7010FF3F47297008360709
:1002A000B00037080318013F7107B1004430B200B5
:1002B000B3019A228030031383122906F2008030A2
:1002C0000B3A7202031D6629B8302802FF30031C66
:1002D0000030F20080302906F00080300C3A7002C5
:1002E000031D7429B8302802FF3003180030F000D5
:1002F0007208F0050319DC29B8302802F0000B3031
:10030000031C013F2902F1007008A8007108A90030
:100310006430F400F501E225FF30F400F5014125D9
:100320007008AA007108AB008030F20080307106BE
:100330007202031D9D297008633C0318A2296330D3
:10034000AA00AB010A30F400F5012A08F0002B08DE
:10035000F10041257008B6007108B7003608AC00FE
:100360003708AD003608F0003708F1000A30F40015
:10037000F501E22570082A02F0007108031C013F14
:100380002B02F1007008AE007108AF000430F400D9
:1003900074080319D029F00DF10D7010FF3FC92921
:1003A00070083607B00037080318013F7107B10025
:1003B0004630B200B3019A2280300313831229061B
:1003C000F20080300F3A7202031DE829A0302802A3
:1003D000FF30031C0030F20080302906F00080302E
:1003E000103A7002031DF629A0302802FF300318CE
:1003F0000030F0007208F00503196A2AA0302802C4
:10040000F0000F30031C013F2902F1007008A80022
:100410007108A9006430F400F501E225FF30F40012
:10042000F50141257008AA007108AB008030F20088
:10043000803071067202031D1F2A7008633C031886
:10044000242A6330AA00AB010A30F400F5012A081F
:10045000F0002B08F10041257008B6007108B700C4
:100460003608AC003708AD003608F0003708F10058
:100470000A30F400F501E22570082A02F000710844
:10048000031C013F2B02F1007008AE007108AF00A1
:100490000430F40074080319522AF00DF10D7010A5
:1004A000FF3F4B2A70083607B00037080318013F9A
:1004B0007107B1004230B200B3019A2244300313F5
:1004C0008312B200B3019A22463003138312B200A2
:1004D000B3019A22213003138312B8008A151D201C
:1004E0008A110730FB00FF30FA00FB0B782A7B2AC9
:1004F000FA0B782A752A7830FA00FA0B7D2A000068
:1005000000002F30B400B5013430B8008A151D202A
:100510008A110730FB00FF30FA00FB0B902A932A68
:10052000FA0B902A8D2A7830FA00FA0B952A0000EF
:100530000000212866263208B800D7263008B80007
:10054000D7268A1584208A110D30FB00FF30FA006F
:10055000FB0BAB2AAE2AFA0BAB2AA82AF330FA001F
:10056000FA0BB02A00000800B42A0313831274089F
:10057000F8027508031C750FF9027608031C760F44
:10058000FA027708031C770FFB02F30D0730FC001B
:10059000730DF80DF90DFA0DFB0D7408731CDE2AAE
:1005A000F8027508031C750FF9027608031C760F14
:1005B000FA027708031C770FFB02EB2AF80775088D
:1005C0000318750FF90776080318760FFA077708EE
:1005D0000318770FFB07F30DFC0BC82A720DF80DFB
:1005E000F90DFA0DFB0D7408731C042BF802750845
:1005F000031C750FF9027608031C760FFA027708C0
:10060000031C770FFB02112BF80775080318750FF1
:10061000F90776080318760FFA0777080318770F9B
:10062000FB07F20D0730FC00720DF80DF90DFA0D05
:10063000FB0D7408721C2A2BF8027508031C750F39
:10064000F9027608031C760FFA027708031C770F6D
:10065000FB02372BF80775080318750FF9077608A2
:100660000318760FFA0777080318770FFB07F20DC8
:10067000FC0B142B710DF80DF90DFA0DFB0D740820
:10068000721C502BF8027508031C750FF9027608CE
:10069000031C760FFA027708031C770FFB025D2B11
:1006A000F80775080318750FF90776080318760F11
:1006B000FA0777080318770FFB07F10D0730FC00E6
:1006C000710DF80DF90DFA0DFB0D7408711C762BE8
:1006D000F8027508031C750FF9027608031C760FE3
:1006E000FA027708031C770FFB02832BF8077508C3
:1006F0000318750FF90776080318760FFA077708BD
:100700000318770FFB07F10DFC0B602B700DF80D34
:10071000F90DFA0DFB0D7408711C9C2BF80275087D
:10072000031C750FF9027608031C760FFA0277088E
:10073000031C770FFB02A92BF80775080318750F28
:10074000F90776080318760FFA0777080318770F6A
:10075000FB07F00D0730FC00700DF80DF90DFA0DD8
:10076000FB0D7408701CC22BF8027508031C750F72
:10077000F9027608031C760FFA027708031C770F3C
:10078000FB02CF2BF80775080318750FF9077608D9
:100790000318760FFA0777080318770FFB07F00D99
:1007A000FC0BAC2B7018E22B7408F80775080318C3
:1007B000750FF90776080318760FFA0777080318FC
:1007C000770FFB07080003138312B901BA01103039
:1007D000BD002730BE00BB01BC01C101C201C30185
:1007E000C401BF01C0013B08380784000008F400C1
:1007F0007408003A0319612C3B083807840000088C
:10080000F40074082D3A031D0C2CFF30BF00C0010A
:10081000BB0A0319BC0AF32B3B0838078400000805
:10082000F4007408203A03194F2C3B083807840061
:100830000008F0003030F800F901FA01FB017008FF
:10084000F400F501F601F7017408F0007508F100F5
:100850007608F2007708F3007808F0027908031CA4
:10086000790FF1027A08031C7A0FF2027B08031C4D
:100870007B0FF3023D08F4003E08F500F601F70196
:100880002B267008C10771080318710FC207720880
:100890000318720FC30773080318730FC4070A30D5
:1008A000F400F5013D08F0003E08F1008A15002033
:1008B0008A117008BD007108BE00BB0A0319BC0A8A
:1008C000F32B3F0840040319692C0630BD00BE011C
:1008D0006C2C0530BD00BE013C083E06031D722C89
:1008E0003D083B0603198E2C0A30F400F501F60191
:1008F000F7014108F0004208F1004308F200440803
:10090000F300A7247008C1007108C2007208C30078
:100910007308C400BB0A0319BC0A6C2C4108B90057
:100920004208BA0000304006031D982CFF303F06F5
:10093000031DA22C3908003CB9003A08031C013FF2
:10094000BA01BA023908F0003A08F10008000313AE
:100950008312FC01F71BFC0AFD01FB01FA01F901FE
:10096000F801730872047104700403193B2D7308B5
:100970007706A000A01BFD09F71FC92CF409F50993
:10098000F609F709F40A0319F50A0319F60A031917
:10099000F70AF31FD62CF009F109F209F309F00A5E
:1009A0000319F10A0319F20A0319F30A7308770409
:1009B000A000A01BF72CB522FC1B142DFD1F3B2D06
:1009C000F009F109F209F309F00A0319F10A031910
:1009D000F20A0319F30AF809F909FA09FB09F80AF6
:1009E0000319F90A0319FA0A0319FB0A3B2DF71F29
:1009F0000E2DF31B082D7308FB007208FA00710816
:100A0000F9007008F800F301F201F101F001DE2CA9
:100A1000F301F201F101F001F00A0034F309F209E7
:100A2000F109F009FC17DB2CF80A0319F90A03197C
:100A3000FA0A0319FB0A74087802031DDE2C7508F4
:100A40007902031DDE2C76087A02031DDE2C77085E
:100A50007B02031DDE2CFB01FA01F901F801F00A0B
:100A60000319F10A0319F20A0319F30AF31FDE2C22
:100A7000A0012016FF34A0017C1C3F2D5627003F0B
:100A8000080003138312FD01F901F80171087004D5
:100A90000319003471087506FA00FA1BFD09FB0101
:100AA000F51F572DF409F509F40A0319F50AF11F8A
:100AB0005E2DF009F109F00A0319F10A71087504B5
:100AC000FA00FA1B732D0A277B18862DFD1F0034B0
:100AD000F009F109F00A0319F10AF809F909F80A0D
:100AE0000319F90A0034F51F822DF11B7E2D7108C0
:100AF000F9007008F800F101F001662DF101F00134
:100B0000F00A0034F109F009FB0A632DF80A031911
:100B1000F90A74087802031D662D75087902031D11
:100B2000662DF901F801F00A0319F10AF11F662D8B
:100B30000000FF34080003138312BA01BB01BE0199
:100B4000390884000008BD008A156D208A117008DC
:100B5000003A0319D82D8A1548208A117008BC0064
:100B60003A083807F10071088400710884007008A1
:100B700080003C083D06031DC22D3B083A02BE0022
:100B8000BB0AC42DBB01BE013B0839078400000825
:100B9000F1007108BD007108003A031DD02DD92D58
:100BA000BA0A3A08143C0318D82D1330BE00D92DC8
:100BB000A42D3E083807F0007008840070088400F7
:100BC0008001080003138312FB01FA01F901803050
:100BD000F800FD01F11FF22DF109F009F00A0319E7
:100BE000F10AFD0AF51FFA2DF509F409F40A0319B3
:100BF000F50AFD0AF10CF00C031C072E7408F90726
:100C000075080318750FFA070318FB0A0310F01F85
:100C10000F2E7408FA070318FB0A7508FB07FB0C74
:100C2000FA0CF90CF80C031CFA2D7D1C222EFB0982
:100C3000FA09F909F809F80A0319F90A0319FA0A6D
:100C40000319FB0A7B08F3007A08F2007908F10027
:100C50007808F000080003138312FD01F31F3D2EF6
:100C6000F009F109F209F309F00A0319F10A03196D
:100C7000F20A0319F30A8130FD07F71F4B2EF4091E
:100C8000F509F609F709F40A0319F50A0319F60A32
:100C90000319F70AFD0AA0267D1C652EF009F1094B
:100CA000F209F309F809F909FA09FB09F00A03192D
:100CB000F10A0319F20A0319F30A0319F80A0319CE
:100CC000F90A0319FA0A0319FB0A0800031383122D
:100CD000B901BA013A08123C031D702E39088E3C46
:100CE000031C842E37277008003A0319782E842EAF
:100CF0003A08123A031D7E2E8E3039060319842ECF
:100D0000B90A0319BA0A6A2E12303A02031D8A2E52
:100D10008F303902031C8F2E7B30B8009D2E831636
:100D200011141108F1000130F1057108003A03199E
:100D30009B2E0000912E8312B8013808F0000800A5
:100D4000031383122230FC00F801F901FA01FB01C0
:100D5000FC030319D62E0310FB0CFA0CF90CF80C4B
:100D6000F30CF20CF10CF00C031CA82EFC0303197D
:100D7000C82E7408F80775080318750FF907760868
:100D80000318760FFA0777080318770FFB07AC2EC6
:100D90007408F80775080318750FF9077608031823
:100DA000760FFA0777080318770FFB07080003137D
:100DB0008312380893008C1183161408F100003058
:100DC00071190130F1007108003A031DDC2E831205
:100DD0000C08F1000030F1190130F1007108003AFF
:100DE0000319E72E83161108F1000030711B013042
:100DF000F1007108003A031D002F8312B901072F7B
:100E0000031383128316111502308312B9003908B7
:100E1000F000080003138312710DF80DF90D74082A
:100E2000F8027508031C750FF902F00DF10D0F3073
:100E3000FC00710DF80DF90D7408701C252FF802D7
:100E40007508031C750FF9022A2FF8077508031897
:100E5000750FF907F00DF10DFC0B192F7018362FD7
:100E60007408F80775080318750FF90708000313CD
:100E70008312C50183161408F10000307119013086
:100E8000F1007108003A031D4F2F1F301105F100CA
:100E90007108003A031D4F2FFF308312C500031362
:100EA0008312031383124508F00008000313831212
:100EB000FB09FA09F909F809F80A0319F90A0319EB
:100EC000FA0A0319FB0A0800FF3FFF3FFF3FFF3FFD
:100ED000FF3FFF3FFF3FFF3FFF3FFF3FFF3FFF3F22
:100EE000FF3FFF3FFF3FFF3FFF3FFF3FFF3FFF3F12
:100EF000FF3FFF3FFF3FFF3FFF3FFF3FFF3FFF3F02
:100F0000FF3FFF3FFF3FFF3FFF3FFF3FFF3FFF3FF1
:100F1000FF3FFF3FFF3FFF3FFF3FFF3FFF3FFF3FE1
:100F2000FF3FFF3FFF3FFF3FFF3FFF3FFF3FFF3FD1
:100F3000FF3FFF3FFF3FFF3FFF3FFF3FFF3FFF3FC1
:100F4000FF3FFF3FFF3FFF3FFF3FFF3FFF3FFF3FB1
:100F5000FF3FFF3FFF3FFF3FFF3FFF3FFF3FFF3FA1
:100F6000FF3FFF3FFF3FFF3FFF3FFF3FFF3FFF3F91
:100F7000FF3FFF3FFF3FFF3FFF3FFF3FFF3FFF3F81
:100F8000FF3FFF3FFF3FFF3FFF3FFF3FFF3FFF3F71
:100F9000FF3FFF3FFF3FFF3FFF3FFF3FFF3FFF3F61
:100FA000FF3FFF3FFF3FFF3FFF3FFF3FFF3FFF3F51
:100FB000FF3FFF3FFF3FFF3FFF3FFF3FFF3FFF3F41
:100FC000FF3FFF3FFF3FFF3FFF3FFF3FFF3FFF3F31
:100FD000FF3FFF3FFF3FFF3FFF3FFF3FFF3FFF3F21
:100FE000FF3FFF3FFF3FFF3FFF3FFF3FFF3FFF3F11
:100FF000FF3FFF3FFF3FFF3FFF3FFF3FFF3FFF3F01
:1010000003138312F801F9011030FC00710DF80D83
:10101000F90D7408F8027508031C750FF90203181E
:1010200018287408F80775080318750FF9070310D6
:10103000F00DF10DFC0B0628080003138312B90113
:10104000380884000008BA003A08003A0319322828
:101050003A08C5005B20B90A39083807840000083F
:10106000BA002428080003138316981690308312C0
:10107000980083168717071383120C08F1000030BD
:10108000F11A0130F1007108013A03193C280800F7
:10109000031383121A08C5001808F1000030F11874
:1010A0000130F1007108013A031D58281812181672
:1010B0004508F0000800031383161808F1000030FB
:1010C000F1180130F1007108003A031D6928000091
:1010D0005B288312450899000800031383120C084B
:1010E000F1000030F11A0130F1007108C500450827
:1010F000F0000800031383161413941307168715C2
:101100003830831294000800031383161115080069
:04400E00C124FFFFCB
:00000001FF
