:100000000428FF3FFF3FFF3FFF30031383168500A7
:10001000FF308600813087008B010317880189013A
:100020000313831285018601193083169900181570
:1000300034270A30831693008A15BF208A118A1547
:10004000B2208A117008003C0318BD2A2130BA0082
:100050002F30B600B7013630BB00C3252130BA00BF
:1000600007247008A8007108A9008030F3008030D0
:1000700071067302031D3E287008093CFF30031807
:100080000030F30080307106F20080307202031DF0
:100090004B282E307002FF3003180030F200720837
:1000A0007305F00003198E2A80302906F200803093
:1000B0007202031D5D280A302802FF30031C003045
:1000C000F20080302906F00080307002031D6A289B
:1000D00010302802FF3003180030F0007208F005DD
:1000E0000319DE280A302802F0000030031C013F0B
:1000F0002902F1007008A8007108A900FF30F4007F
:10010000F5010A260530F400F50167257008AA00FC
:100110007108AB006430F400F5010A26FF30F400EA
:10012000F50167257008AC007108AD008030F20061
:10013000803071067202031D9F287008633C03180B
:10014000A4286330AC00AD010A30F400F5012C089E
:10015000F0002D08F10067257008B8007108B9009B
:100160003808AE003908AF003808F0003908F1004F
:100170000A30F400F5010A2670082C02F00071081C
:10018000031C013F2D02F1007008B0007108B1009E
:100190000430F40074080319D228F00DF10D70102A
:1001A000FF3FCB2870083807B20039080318013F19
:1001B0007107B3004230B400B501BE228030031392
:1001C00083122906F20080307202031DE9281430E0
:1001D0002802FF30031C0030F20080302906F000B6
:1001E00080307002031DF6281A302802FF300318F1
:1001F0000030F0007208F00503196A291430280253
:10020000F0000030031C013F2902F1007008A80033
:100210007108A900FF30F400F5010A260530F4004A
:10022000F50167257008AA007108AB006430F4007E
:10023000F5010A26FF30F400F50167257008AC00CF
:100240007108AD008030F200803071067202031D2B
:100250002B297008633C031830296330AC00AD01D2
:100260000A30F400F5012C08F0002D08F100672594
:100270007008B8007108B9003808AE003908AF003E
:100280003808F0003908F1000A30F400F5010A26B8
:1002900070082C02F0007108031C013F2D02F100D0
:1002A0007008B0007108B1000430F400740803193C
:1002B0005E29F00DF10D7010FF3F572970083807C7
:1002C000B20039080318013F7107B3004430B4008D
:1002D000B501BE228030031383122906F20080305C
:1002E0007202031D75291E302802FF30031C0030E6
:1002F000F20080302906F00080307002031D822950
:1003000024302802FF3003180030F0007208F00596
:100310000319F6291E302802F0000030031C013FAB
:100320002902F1007008A8007108A900FF30F4004C
:10033000F5010A260530F400F50167257008AA00CA
:100340007108AB006430F400F5010A26FF30F400B8
:10035000F50167257008AC007108AD008030F2002F
:10036000803071067202031DB7297008633C0318C0
:10037000BC296330AC00AD010A30F400F5012C0853
:10038000F0002D08F10067257008B8007108B90069
:100390003808AE003908AF003808F0003908F1001D
:1003A0000A30F400F5010A2670082C02F0007108EA
:1003B000031C013F2D02F1007008B0007108B1006C
:1003C0000430F40074080319EA29F00DF10D7010DF
:1003D000FF3FE32970083807B20039080318013FCE
:1003E0007107B3004630B400B501BE22803003135C
:1003F00083122906F20080307202031D012A283080
:100400002802FF30031C0030F20080302906F00083
:1004100080307002031D0E2A2E302802FF30031890
:100420000030F0007208F00503198E2A28302802E7
:10043000F0000030031C013F2902F1007008A80001
:100440007108A900FF30F400F5010A260530F40018
:10045000F50167257008AA007108AB006430F4004C
:10046000F5010A26FF30F400F50167257008AC009D
:100470007108AD008030F200803071067202031DF9
:10048000432A7008633C0318482A6330AC00AD016E
:100490000A30F400F5012C08F0002D08F100672562
:1004A0007008B8007108B9003808AE003908AF000C
:1004B0003808F0003908F1000A30F400F5010A2686
:1004C00070082C02F0007108031C013F2D02F1009E
:1004D0007008B0007108B1000430F400740803190A
:1004E000762AF00DF10D7010FF3F6F2A7008380763
:1004F000B20039080318013F7107B3004230B4005D
:10050000B501BE22443003138312B400B501BE22EC
:10051000463003138312B400B501BE222130031309
:100520008312BA008A1569208A110730FB00FF3058
:10053000FA00FB0B9C2A9F2AFA0B9C2A992A7830F6
:10054000FA00FA0BA12A000000002F30B600B70114
:100550003630BA008A1569208A110730FB00FF3057
:10056000FA00FB0BB42AB72AFA0BB42AB12A783066
:10057000FA00FA0BB92A000000001F288E26340862
:10058000BA0001273208BA0001278A15C9208A114A
:100590000D30FB00FF30FA00FB0BCF2AD22AFA0BFA
:1005A000CF2ACC2AF330FA00FA0BD42A0000080034
:1005B000D82A031383127408F8027508031C750FF8
:1005C000F9027608031C760FFA027708031C770FEE
:1005D000FB02F30D0730FC00730DF80DF90DFA0D59
:1005E000FB0D7408731C022BF8027508031C750FB1
:1005F000F9027608031C760FFA027708031C770FBE
:10060000FB020F2BF80775080318750FF90776081A
:100610000318760FFA0777080318770FFB07F30D17
:10062000FC0BEC2A720DF80DF90DFA0DFB0D740898
:10063000731C282BF8027508031C750FF902760845
:10064000031C760FFA027708031C770FFB02352B89
:10065000F80775080318750FF90776080318760F61
:10066000FA0777080318770FFB07F20D0730FC0035
:10067000720DF80DF90DFA0DFB0D7408721C4E2B5E
:10068000F8027508031C750FF9027608031C760F33
:10069000FA027708031C770FFB025B2BF80775083B
:1006A0000318750FF90776080318760FFA0777080D
:1006B0000318770FFB07F20DFC0B382B710DF80DAB
:1006C000F90DFA0DFB0D7408721C742BF8027508F5
:1006D000031C750FF9027608031C760FFA027708DF
:1006E000031C770FFB02812BF80775080318750FA1
:1006F000F90776080318760FFA0777080318770FBB
:10070000FB07F10D0730FC00710DF80DF90DFA0D26
:10071000FB0D7408711C9A2BF8027508031C750FE9
:10072000F9027608031C760FFA027708031C770F8C
:10073000FB02A72BF80775080318750FF907760851
:100740000318760FFA0777080318770FFB07F10DE8
:10075000FC0B842B700DF80DF90DFA0DFB0D7408D0
:10076000711CC02BF8027508031C750FF90276087E
:10077000031C760FFA027708031C770FFB02CD2BC0
:10078000F80775080318750FF90776080318760F30
:10079000FA0777080318770FFB07F00D0730FC0006
:1007A000700DF80DF90DFA0DFB0D7408701CE62B99
:1007B000F8027508031C750FF9027608031C760F02
:1007C000FA027708031C770FFB02F32BF807750872
:1007D0000318750FF90776080318760FFA077708DC
:1007E0000318770FFB07F00DFC0BD02B7018062CAD
:1007F0007408F80775080318750FF90776080318C9
:10080000760FFA0777080318770FFB070800031322
:100810008312BB01BC011030BF002730C000BD01F6
:10082000BE01C301C401C501C601C101C2013D0829
:100830003A0784000008F4007408003A0319852C74
:100840003D083A0784000008F40074082D3A031D9F
:10085000302CFF30C100C201BD0A0319BE0A172C9B
:100860003D083A0784000008F4007408203A031990
:10087000732C3D083A0784000008F0003030F8007F
:10088000F901FA01FB017008F400F501F601F70126
:100890007408F0007508F1007608F2007708F3009C
:1008A0007808F0027908031C790FF1027A08031C1A
:1008B0007A0FF2027B08031C7B0FF3023F08F4005F
:1008C0004008F500F601F70153267008C3077108C8
:1008D0000318710FC40772080318720FC507730855
:1008E0000318730FC6070A30F400F5013F08F00043
:1008F0004008F1008A154C208A117008BF00710869
:10090000C000BD0A0319BE0A172C4108420403198E
:100910008D2C0630BF00C001902C0530BF00C001F7
:100920003E084006031D962C3F083D060319B22CD5
:100930000A30F400F501F601F7014308F00044081D
:10094000F1004508F2004608F300CB247008C3000C
:100950007108C4007208C5007308C600BD0A0319F7
:10096000BE0A902C4308BB004408BC00003042067D
:10097000031DBC2CFF304106031DC62C3B08003C68
:10098000BB003C08031C013FBC01BC023B08F0005B
:100990003C08F100080003138312FC01F71BFC0A5A
:1009A000FD01FB01FA01F901F801730872047104F9
:1009B000700403195F2D73087706A000A01BFD09C2
:1009C000F71FED2CF409F509F609F709F40A0319E4
:1009D000F50A0319F60A0319F70AF31FFA2CF009AE
:1009E000F109F209F309F00A0319F10A0319F20AED
:1009F0000319F30A73087704A000A01B1B2DD9224A
:100A0000FC1B382DFD1F5F2DF009F109F209F309D8
:100A1000F00A0319F10A0319F20A0319F30AF80993
:100A2000F909FA09FB09F80A0319F90A0319FA0A7C
:100A30000319FB0A5F2DF71F322DF31B2C2D7308B2
:100A4000FB007208FA007108F9007008F800F30161
:100A5000F201F101F001022DF301F201F101F001C7
:100A6000F00A0034F309F209F109F009FC17FF2C30
:100A7000F80A0319F90A0319FA0A0319FB0A740898
:100A80007802031D022D75087902031D022D7608D8
:100A90007A02031D022D77087B02031D022DFB0144
:100AA000FA01F901F801F00A0319F10A0319F20A2F
:100AB0000319F30AF31F022DA0012016FF34A00131
:100AC0007C1C652D8A15A4208A11003F08000313A1
:100AD0008312FD01F901F801710870040319003453
:100AE00071087506FA00FA1BFD09FB01F51F7D2D43
:100AF000F409F509F40A0319F50AF11F842DF00928
:100B0000F109F00A0319F10A71087504FA00FA1BD9
:100B1000992D8A1500208A117B18AE2DFD1F0034F7
:100B2000F009F109F00A0319F10AF809F909F80ABC
:100B30000319F90A0034F51FAA2DF11BA62D71081F
:100B4000F9007008F800F101F0018E2DF101F001BB
:100B5000F00A0034F109F009FB0A8B2DF80A031999
:100B6000F90A74087802031D8E2D75087902031D99
:100B70008E2DF901F801F00A0319F10AF11F8E2DEB
:100B80000000FF34080003138312BC01BD01C00143
:100B90003B0884000008BF008A15B2208A11700843
:100BA000003A0319002E8A157F208A117008BE00B2
:100BB0003C083A07F100710884007108840070084D
:100BC00080003E083F06031DEA2D3D083C02C000A0
:100BD000BD0AEC2DBD01C0013D083B0784000008A3
:100BE000F1007108BF007108003A031DF82D012EB5
:100BF000BC0A3C08143C0318002E1330C000012E20
:100C0000CC2D40083A07F00070088400700884007A
:100C10008001080003138312FB01FA01F9018030FF
:100C2000F800FD01F11F1A2EF109F009F00A03196D
:100C3000F10AFD0AF51F222EF509F409F40A031939
:100C4000F50AFD0AF10CF00C031C2F2E7408F907AD
:100C500075080318750FFA070318FB0A0310F01F35
:100C6000372E7408FA070318FB0A7508FB07FB0CFC
:100C7000FA0CF90CF80C031C222E7D1C4A2EFB09E1
:100C8000FA09F909F809F80A0319F90A0319FA0A1D
:100C90000319FB0A7B08F3007A08F2007908F100D7
:100CA0007808F000080003138312FD01F31F652E7E
:100CB000F009F109F209F309F00A0319F10A03191D
:100CC000F20A0319F30A8130FD07F71F732EF409A6
:100CD000F509F609F709F40A0319F50A0319F60AE2
:100CE0000319F70AFD0ACA267D1C8D2EF009F109A9
:100CF000F209F309F809F909FA09FB09F00A0319DD
:100D0000F10A0319F20A0319F30A0319F80A03197D
:100D1000F90A0319FA0A0319FB0A080003138312DC
:100D2000BB01BC013C08123C031D982E3B088E3CC5
:100D3000031CAE2E8A152D208A117008003A031963
:100D4000A22EAE2E3C08123A031DA82E8E303B0672
:100D50000319AE2EBB0A0319BC0A922E12303C02B4
:100D6000031DB42E8F303B02031CB92E7B30BA001A
:100D7000C72E831611141108F1000130F105710816
:100D8000003A0319C52E0000BB2E8312BA013A089F
:100D9000F0000800031383122230FC00F801F9016F
:100DA000FA01FB01FC030319002F0310FB0CFA0CE2
:100DB000F90CF80CF30CF20CF10CF00C031CD22E15
:100DC000FC030319F22E7408F80775080318750F51
:100DD000F90776080318760FFA0777080318770FD4
:100DE000FB07D62E7408F80775080318750FF90766
:100DF00076080318760FFA0777080318770FFB07B2
:100E00000800031383123A0893008C118316140808
:100E1000F100003071190130F1007108003A031D32
:100E2000062F83120C08F1000030F1190130F10097
:100E30007108003A0319112F83161108F1000030D0
:100E4000711B0130F1007108003A031D2A2F831233
:100E5000BB01312F03138312831611150230831245
:100E6000BB003B08F000080003138316981690306F
:100E70008312980083168717071383120C08F1005A
:100E80000030F11A0130F1007108013A03193D2FC9
:100E90000800FF3FFF3FFF3FFF3FFF3FFF3FFF3F98
:100EA000FF3FFF3FFF3FFF3FFF3FFF3FFF3FFF3F52
:100EB000FF3FFF3FFF3FFF3FFF3FFF3FFF3FFF3F42
:100EC000FF3FFF3FFF3FFF3FFF3FFF3FFF3FFF3F32
:100ED000FF3FFF3FFF3FFF3FFF3FFF3FFF3FFF3F22
:100EE000FF3FFF3FFF3FFF3FFF3FFF3FFF3FFF3F12
:100EF000FF3FFF3FFF3FFF3FFF3FFF3FFF3FFF3F02
:100F0000FF3FFF3FFF3FFF3FFF3FFF3FFF3FFF3FF1
:100F1000FF3FFF3FFF3FFF3FFF3FFF3FFF3FFF3FE1
:100F2000FF3FFF3FFF3FFF3FFF3FFF3FFF3FFF3FD1
:100F3000FF3FFF3FFF3FFF3FFF3FFF3FFF3FFF3FC1
:100F4000FF3FFF3FFF3FFF3FFF3FFF3FFF3FFF3FB1
:100F5000FF3FFF3FFF3FFF3FFF3FFF3FFF3FFF3FA1
:100F6000FF3FFF3FFF3FFF3FFF3FFF3FFF3FFF3F91
:100F7000FF3FFF3FFF3FFF3FFF3FFF3FFF3FFF3F81
:100F8000FF3FFF3FFF3FFF3FFF3FFF3FFF3FFF3F71
:100F9000FF3FFF3FFF3FFF3FFF3FFF3FFF3FFF3F61
:100FA000FF3FFF3FFF3FFF3FFF3FFF3FFF3FFF3F51
:100FB000FF3FFF3FFF3FFF3FFF3FFF3FFF3FFF3F41
:100FC000FF3FFF3FFF3FFF3FFF3FFF3FFF3FFF3F31
:100FD000FF3FFF3FFF3FFF3FFF3FFF3FFF3FFF3F21
:100FE000FF3FFF3FFF3FFF3FFF3FFF3FFF3FFF3F11
:100FF000FF3FFF3FFF3FFF3FFF3FFF3FFF3FFF3F01
:1010000003138312710DF80DF90D7408F8027508B9
:10101000031C750FF902F00DF10D0F30FC00710D7E
:10102000F80DF90D7408701C1B28F8027508031CD4
:10103000750FF9022028F80775080318750FF907CE
:10104000F00DF10DFC0B0F2870182C287408F80710
:1010500075080318750FF907080003138312C701F9
:1010600083161408F100003071190130F100710885
:10107000003A031D45281F301105F1007108003AA0
:10108000031D4528FF308312C70003138312031387
:1010900083124708F000080003138312F801F901D6
:1010A0001030FC00710DF80DF90D7408F802750888
:1010B000031C750FF902031864287408F8077508F3
:1010C0000318750FF9070310F00DF10DFC0B5228F2
:1010D000080003138312BB013A0884000008BC0017
:1010E0003C08003A03197E283C08C7009220BB0A3E
:1010F0003B083A0784000008BC007028080003136E
:1011000083121A08C7001808F1000030F1180130E6
:10111000F1007108013A031D8F28181218164708AC
:10112000F0000800031383161808F1000030F118CE
:101130000130F1007108003A031DA0280000922838
:10114000831247089900080003138312FB09FA0968
:10115000F909F809F80A0319F90A0319FA0A03192F
:10116000FB0A0800031383120C08F1000030F11A87
:101170000130F1007108C7004708F00008000313B0
:1011800083161413941307168715383083129400AE
:1011900008000313831611150800FF3FFF3FFF3FB0
:04400E00C124FFFFCB
:00000001FF
