:100000008E2AFF3FFF3FFF3F031383127408F8025D
:100010007508031C750FF9027608031C760FFA02A7
:100020007708031C770FFB02F30D0730FC00730DFC
:10003000F80DF90DFA0DFB0D7408731C2D28F8024C
:100040007508031C750FF9027608031C760FFA0277
:100050007708031C770FFB023A28F8077508031886
:10006000750FF90776080318760FFA077708031853
:10007000770FFB07F30DFC0B1728720DF80DF90D28
:10008000FA0DFB0D7408731C5328F8027508031C45
:10009000750FF9027608031C760FFA027708031C25
:1000A000770FFB026028F80775080318750FF9072A
:1000B00076080318760FFA0777080318770FFB07FF
:1000C000F20D0730FC00720DF80DF90DFA0DFB0D65
:1000D0007408721C7928F8027508031C750FF90260
:1000E0007608031C760FFA027708031C770FFB02D1
:1000F0008628F80775080318750FF907760803189E
:10010000760FFA0777080318770FFB07F20DFC0B41
:100110006328710DF80DF90DFA0DFB0D7408721CB2
:100120009F28F8027508031C750FF9027608031C56
:10013000760FFA027708031C770FFB02AC28F8074A
:1001400075080318750FF90776080318760FFA0774
:1001500077080318770FFB07F10D0730FC00710DCE
:10016000F80DF90DFA0DFB0D7408711CC528F80285
:100170007508031C750FF9027608031C760FFA0246
:100180007708031C770FFB02D228F80775080318BD
:10019000750FF90776080318760FFA077708031822
:1001A000770FFB07F10DFC0BAF28700DF80DF90D63
:1001B000FA0DFB0D7408711CEB28F8027508031C7E
:1001C000750FF9027608031C760FFA027708031CF4
:1001D000770FFB02F828F80775080318750FF90761
:1001E00076080318760FFA0777080318770FFB07CE
:1001F000F00D0730FC00700DF80DF90DFA0DFB0D38
:100200007408701C1129F8027508031C750FF90297
:100210007608031C760FFA027708031C770FFB029F
:100220001E29F80775080318750FF90776080318D3
:10023000760FFA0777080318770FFB07F00DFC0B12
:10024000FB28701831297408F80775080318750F12
:10025000F90776080318760FFA0777080318770F5F
:10026000FB07080003138312B401B5011030B80076
:100270002730B900B601B701BC01BD01BE01BF0105
:10028000BA01BB013608330784000008F400740883
:10029000003A0319AE293608330784000008F40039
:1002A00074082D3A031D5B29FF30BA00BB01B60A62
:1002B0000319B70A42293608330784000008F400FE
:1002C0007408203A03199E29360833078400000871
:1002D000F0003030F800F901FA01FB017008F40079
:1002E000F501F601F7017408F0007508F1007608D1
:1002F000F2007708F3007808F0027908031C790F00
:10030000F1027A08031C7A0FF2027B08031C7B0FB0
:10031000F3023808F4003908F500F601F70131233B
:100320007008BC0771080318710FBD077208031825
:10033000720FBE0773080318730FBF070A30F4006B
:10034000F5013808F0003908F100A3237008B8005F
:100350007108B900B60A0319B70A42293A083B04E2
:100360000319B6290630B800B901B9290530B8001B
:10037000B90137083906031DBF29380836060319A5
:10038000DB290A30F400F501F601F7013C08F00022
:100390003D08F1003E08F2003F08F300F421700828
:1003A000BC007108BD007208BE007308BF00B60A29
:1003B0000319B70AB9293C08B4003D08B50000305C
:1003C0003B06031DE529FF303A06031DEF293408DB
:1003D000003CB4003508031C013FB501B5023408E8
:1003E000F0003508F100080003138312FC01F71B2D
:1003F000FC0AFD01FB01FA01F901F801730872041E
:10040000710470040319882A73087706A000A01BE2
:10041000FD09F71F162AF409F509F609F709F40A88
:100420000319F50A0319F60A0319F70AF31F232A19
:10043000F009F109F209F309F00A0319F10A0319A5
:10044000F20A0319F30A73087704A000A01B442AD8
:100450000420FC1B612AFD1F882AF009F109F2091A
:10046000F309F00A0319F10A0319F20A0319F30A4E
:10047000F809F909FA09FB09F80A0319F90A031935
:10048000FA0A0319FB0A882AF71F5B2AF31B552A6D
:100490007308FB007208FA007108F9007008F80090
:1004A000F301F201F101F0012B2AF301F201F10154
:1004B000F001F00A0034F309F209F109F009FC1720
:1004C000282AF80A0319F90A0319FA0A0319FB0A78
:1004D00074087802031D2B2A75087902031D2B2A44
:1004E00076087A02031D2B2A77087B02031D2B2A2C
:1004F000FB01FA01F901F801F00A0319F10A0319E5
:10050000F20A0319F30AF31F2B2AA0012016FF3465
:10051000A0017C1C8C2A1024003F0800FF3003132C
:1005200083168500FF308600813087008B0103171A
:10053000880189010313831285018601193083160E
:1005400099001815D6230A30831693002B241E24F5
:100550007008003C0318EC2A2130B3002D30B100A4
:10056000B2013130B400EE222830B3002F30B10098
:10057000B2013130B400EE222830B30032217008CD
:10058000AF007108B0002130B300C0230730FB007A
:10059000FF30FA00FB0BCD2AD02AFA0BCD2ACA2A4B
:1005A0007830FA00FA0BD22A000000002F30B10098
:1005B000B2013130B300C0230730FB00FF30FA0036
:1005C000FB0BE32AE62AFA0BE32AE02A7830FA004A
:1005D000FA0BE82A00000000A72AED2A0313831271
:1005E000B501B601B901340884000008B8001E2422
:1005F0007008003A0319272BEB237008B700350861
:100600003307F100710884007108840070088000CD
:1006100037083806031D112B36083502B900B60A13
:10062000132BB601B9013608340784000008F10025
:100630007108B8007108003A031D1F2B282BB50A5A
:100640003508143C0318272B1330B900282BF72A40
:1006500039083307F00070088400700884008001B6
:10066000080003138312FD01F31F432BF009F10966
:10067000F209F309F00A0319F10A0319F20A03193E
:10068000F30A8130FD07F71F512BF409F509F6092C
:10069000F709F40A0319F50A0319F60A0319F70A08
:1006A000FD0A6C237D1C6B2BF009F109F209F3099B
:1006B000F809F909FA09FB09F00A0319F10A031903
:1006C000F20A0319F30A0319F80A0319F90A0319BC
:1006D000FA0A0319FB0A0800031383122230FC00F4
:1006E000F801F901FA01FB01FC030319A22B031025
:1006F000FB0CFA0CF90CF80CF30CF20CF10CF00CEE
:10070000031C742BFC030319942B7408F807750859
:100710000318750FF90776080318760FFA0777089C
:100720000318770FFB07782B7408F8077508031870
:10073000750FF90776080318760FFA07770803187C
:10074000770FFB07080003138312F801F90110303B
:10075000FC00710DF80DF90D7408F8027508031C02
:10076000750FF9020318BB2B7408F80775080318F6
:10077000750FF9070310F00DF10DFC0BA92B080004
:1007800003138312B401330884000008B500350850
:10079000003A0319D52B3508C000FE23B40A3408EB
:1007A000330784000008B500C72B08000313831625
:1007B00098169030831298008316871707138312B8
:1007C0000C08F1000030F11A0130F1007108013A13
:1007D0000319DF2B0800031383121A08C00018083E
:1007E000F1000030F1180130F1007108013A031DE9
:1007F000FB2B181218164008F0000800031383168C
:100800001808F1000030F1180130F1007108003AC9
:10081000031D0C2C0000FE2B8312400899000800D9
:1008200003138312FB09FA09F909F809F80A0319F5
:10083000F90A0319FA0A0319FB0A080003138312C1
:100840000C08F1000030F11A0130F1007108C0000D
:100850004008F000080003138316141394130716BE
:1008600087153830831294000800FF3FFF3FFF3F99
:04400E00C124FFFFCB
:00000001FF
