:100000000428FF3FFF3FFF3FFF30031383168500A7
:100010003F30860087018B01031783129E019F01E9
:10002000031385018601870119308316990018157D
:10003000C0240714871407151B2507101130AE00C4
:10004000E824AE01E824071487101130AE00E8243C
:10005000AE01E824871407111130AE00E824AE0188
:10006000E824071528257008003C03184C29213086
:10007000AE002F30AC00AD012C30AF00D8232130C2
:10008000AE007C227008A8007108A9008030033AF5
:10009000F300803071067302031D50287008E73C9E
:1000A000FF3003180030F30080307106F20080301A
:1000B000103A7202031D5E28A0307002FF30031850
:1000C0000030F20072087305F00003194C298030EB
:1000D0002906F2008030033A7202031D7128E830CD
:1000E0002802FF30031C0030F20080302906F000A7
:1000F0008030043A7002031D7F28E8302802FF3068
:1001000003180030F0007208F00503199028013040
:10011000AA00AB01E830A802031CA9030330A9021E
:1001200080302906F2008030073A7202031D9A28B7
:10013000D0302802FF30031C0030F2008030290646
:10014000F0008030083A7002031DA828D030280241
:10015000FF3003180030F0007208F0050319B928C9
:100160000230AA00AB01D030A802031CA90307305B
:10017000A90280302906F20080300B3A7202031D7A
:10018000C328B8302802FF30031C0030F200803052
:100190002906F00080300C3A7002031DD128B830D7
:1001A0002802FF3003180030F0007208F005031930
:1001B000E2280330AA00AB01B830A802031CA9034F
:1001C0000B30A90280302906F20080300F3A72020B
:1001D000031DEC28A0302802FF30031C0030F20081
:1001E00080302906F0008030103A7002031DFA2892
:1001F000A0302802FF3003180030F0007208F0052C
:1002000003190B290430AA00AB01A030A802031C7B
:10021000A9030F30A90200302B06031D112901305C
:100220002A06031D1429071000302B06031D1A2966
:1002300002302A06031D1D29871000302B06031DDE
:10024000232903302A06031D2629071100302B0617
:10025000031D2C2904302A06031D3129071087109D
:1002600007111130AE00E8242808AE00E824071476
:10027000871407150D30FB00FF30FA00FB0B4129F6
:100280004429FA0B41293E29F330FA00FA0B46299A
:1002900000002130AE00AA2432284D290313831216
:1002A0007408F8027508031C750FF9027608031C20
:1002B000760FFA027708031C770FFB02F30D073065
:1002C000FC00730DF80DF90DFA0DFB0D7408731C8D
:1002D0007729F8027508031C750FF9027608031CCC
:1002E000760FFA027708031C770FFB028429F807C0
:1002F00075080318750FF90776080318760FFA07C3
:1003000077080318770FFB07F30DFC0B6129720DBB
:10031000F80DF90DFA0DFB0D7408731C9D29F802F8
:100320007508031C750FF9027608031C760FFA0294
:100330007708031C770FFB02AA29F8077508031832
:10034000750FF90776080318760FFA077708031870
:10035000770FFB07F20D0730FC00720DF80DF90D59
:10036000FA0DFB0D7408721CC329F8027508031CF2
:10037000750FF9027608031C760FFA027708031C42
:10038000770FFB02D029F80775080318750FF907D6
:1003900076080318760FFA0777080318770FFB071C
:1003A000F20DFC0BAD29710DF80DF90DFA0DFB0DD9
:1003B0007408721CE929F8027508031C750FF9020C
:1003C0007608031C760FFA027708031C770FFB02EE
:1003D000F629F80775080318750FF907760803184A
:1003E000760FFA0777080318770FFB07F10D073030
:1003F000FC00710DF80DF90DFA0DFB0D7408711C60
:100400000F2AF8027508031C750FF9027608031C01
:10041000760FFA027708031C770FFB021C2AF807F5
:1004200075080318750FF90776080318760FFA0791
:1004300077080318770FFB07F10DFC0BF929700DF6
:10044000F80DF90DFA0DFB0D7408711C352AF80230
:100450007508031C750FF9027608031C760FFA0263
:100460007708031C770FFB02422AF8077508031868
:10047000750FF90776080318760FFA07770803183F
:10048000770FFB07F00D0730FC00700DF80DF90D2C
:10049000FA0DFB0D7408701C5B2AF8027508031C2A
:1004A000750FF9027608031C760FFA027708031C11
:1004B000770FFB02682AF80775080318750FF9070C
:1004C00076080318760FFA0777080318770FFB07EB
:1004D000F00DFC0B452A70187B2A7408F807750884
:1004E0000318750FF90776080318760FFA077708CF
:1004F0000318770FFB07080003138312AF01B00145
:100500001030B3002730B400B101B201B701B80117
:10051000B901BA01B501B60131082E0784000008FF
:10052000F4007408003A0319F82A31082E078400F1
:100530000008F40074082D3A031DA52AFF30B50009
:10054000B601B10A0319B20A8C2A31082E078400B9
:100550000008F4007408203A0319E82A31082E072D
:1005600084000008F0003030F800F901FA01FB01C6
:100570007008F400F501F601F7017408F000750841
:10058000F1007608F2007708F3007808F0027908A5
:10059000031C790FF1027A08031C7A0FF2027B0820
:1005A000031C7B0FF3023308F4003408F500F60156
:1005B000F7011B247008B70771080318710FB807FB
:1005C00072080318720FB90773080318730FBA077C
:1005D0000A30F400F5013308F0003408F1008D24EE
:1005E0007008B3007108B400B10A0319B20A8C2A6A
:1005F000350836040319002B0630B300B401032B71
:100600000530B300B40132083406031D092B33084A
:1006100031060319252B0A30F400F501F601F70124
:100620003708F0003808F1003908F2003A08F30002
:100630003E237008B7007108B8007208B90073084B
:10064000BA00B10A0319B20A032B3708AF00380801
:10065000B00000303606031D2F2BFF303506031D7A
:10066000392B2F08003CAF003008031C013FB001BC
:10067000B0022F08F0003008F100080003138312C5
:10068000FC01F71BFC0AFD01FB01FA01F901F8016D
:1006900073087204710470040319D22B730877066F
:1006A000A000A01BFD09F71F602BF409F509F6094E
:1006B000F709F40A0319F50A0319F60A0319F70AE8
:1006C000F31F6D2BF009F109F209F309F00A031980
:1006D000F10A0319F20A0319F30A73087704A00058
:1006E000A01B8E2B4E21FC1BAB2BFD1FD22BF00928
:1006F000F109F209F309F00A0319F10A0319F20AE0
:100700000319F30AF809F909FA09FB09F80A0319A8
:10071000F90A0319FA0A0319FB0AD22BF71FA52BB2
:10072000F31B9F2B7308FB007208FA007108F90095
:100730007008F800F301F201F101F001752BF301EB
:10074000F201F101F001F00A0034F309F209F109B4
:10075000F009FC17722BF80A0319F90A0319FA0AAF
:100760000319FB0A74087802031D752B75087902BA
:10077000031D752B76087A02031D752B77087B0203
:10078000031D752BFB01FA01F901F801F00A0319A9
:10079000F10A0319F20A0319F30AF31F752BA001DA
:1007A0002016FF34A0017C1CD62B0D25003F08002D
:1007B00003138312B001B101B4012F0884000008B3
:1007C000B30028257008003A0319112CD5247008AD
:1007D000B20030082E07F10071088400710884000F
:1007E0007008800032083306031DFB2B31083002ED
:1007F000B400B10AFD2BB101B40131082F07840008
:100800000008F1007108B3007108003A031D092CBB
:10081000122CB00A3008143C0318112C1330B40009
:10082000122CE12B34082E07F000700884007008A9
:1008300084008001080003138312FD01F31F2D2C97
:10084000F009F109F209F309F00A0319F10A031991
:10085000F20A0319F30A8130FD07F71F3B2CF40954
:10086000F509F609F709F40A0319F50A0319F60A56
:100870000319F70AFD0A56247D1C552CF009F109CD
:10088000F209F309F809F909FA09FB09F00A031951
:10089000F10A0319F20A0319F30A0319F80A0319F2
:1008A000F90A0319FA0A0319FB0A08000313831251
:1008B0002230FC00F801F901FA01FB01FC030319E5
:1008C0008C2C0310FB0CFA0CF90CF80CF30CF20C4A
:1008D000F10CF00C031C5E2CFC0303197E2C740835
:1008E000F80775080318750FF90776080318760FCF
:1008F000FA0777080318770FFB07622C7408F807CC
:1009000075080318750FF90776080318760FFA07AC
:1009100077080318770FFB07080003138312F80109
:10092000F9011030FC00710DF80DF90D7408F80292
:100930007508031C750FF9020318A52C7408F80735
:1009400075080318750FF9070310F00DF10DFC0B76
:10095000932C080003138312AF012E0884000008B3
:10096000B0003008003A0319BF2C3008BB00FB244C
:10097000AF0A2F082E0784000008B000B12C080031
:1009800003138316981690308312980083168616E8
:10099000861783120C08F1000030F11A0130F100C3
:1009A0007108013A0319C92C0800031383121A08AD
:1009B000BB001808F1000030F1180130F100710897
:1009C000013A031DE52C181218163B08F000080028
:1009D000031383122E08930083161408F1000130CC
:1009E000F1057108003A031DF72C0000EC2C83126E
:1009F0001308AF000800031383161808F100003035
:100A0000F1180130F1007108003A031D092D0000B2
:100A1000FB2C83123B089900080003138312FB0987
:100A2000FA09F909F809F80A0319F90A0319FA0A7F
:100A30000319FB0A0800031383168713061306160F
:100A40008312940140308316940083129416080098
:100A5000031383120C08F1000030F11A0130F10089
:100A60007108BB003B08F0000800FF3FFF3FFF3F5D
:02400E00C430BC
:00000001FF
