:100000000428FF3FFF3FFF3FFF30031383168500A7
:100010003F30860087018B01031783129E019F01E9
:10002000031385018601870119308316990018157D
:10003000C1260714871407158A151B208A1107107B
:100040001130B500F926B501F926071487101130D3
:10005000B500F926B501F926871407111130B5004E
:10006000F926B501F92607158A150E208A117008A0
:10007000003C031858292230B5002F30AF00B001E2
:100080002F30B60043252230B50088227008A90021
:100090007108AA008030F500803071067502031DDA
:1000A00053287008093CFF3003180030F5008030F9
:1000B0007106F40080307402031D60282E30700237
:1000C000FF3003180030F40074087505F0000319C0
:1000D000552980302A06F40080307402031D7228EE
:1000E0000A302902FF30031C0030F40080302A0659
:1000F000F00080307002031D7F2810302902FF308D
:1001000003180030F0007408F00503198C2807105C
:100110000A30A902031CAA0380302A06F4008030AA
:100120007402031D952814302902FF30031C00308F
:10013000F40080302A06F00080307002031DA228EF
:100140001A302902FF3003180030F0007408F0055F
:100150000319AF2887101430A902031CAA038030AA
:100160002A06F40080307402031DB8281E302902CC
:10017000FF30031C0030F40080302A06F00080308D
:100180007002031DC52824302902FF3003180030F7
:10019000F0007408F0050319D22807111E30A902D7
:1001A000031CAA0380302A06F40080307402031D69
:1001B000DB2828302902FF30031C0030F400803097
:1001C0002A06F00080307002031DE8282E30290234
:1001D000FF3003180030F0007408F0050319F72809
:1001E0000710871007112830A902031CAA03290849
:1001F000F0002A08F10070267008B1007108B20002
:100200007208B3007308B400FF30F000D62631083E
:10021000F4003208F5003308F6003408F7008424AF
:100220007008B1007108B2007208B3007308B4001E
:100230000530F000D6267008F4007108F500720849
:10024000F6007308F7003108F0003208F1003308B7
:10025000F2003408F3004A237008AB007108AC00C8
:100260007208AD007308AE001130B500F9262B08F6
:10027000F0002C08F1002D08F2002E08F30088256C
:100280007008B500F9260714871407150D30FB0018
:10029000FF30FA00FB0B4D295029FA0B4D294A2952
:1002A000F330FA00FA0B522900002230B500AB26D9
:1002B00034285929031383127408F8027508031CA3
:1002C000750FF9027608031C760FFA027708031CF3
:1002D000770FFB02F30D0730FC00730DF80DF90DDD
:1002E000FA0DFB0D7408731C8329F8027508031CB2
:1002F000750FF9027608031C760FFA027708031CC3
:10030000770FFB029029F80775080318750FF90796
:1003100076080318760FFA0777080318770FFB079C
:10032000F30DFC0B6D29720DF80DF90DFA0DFB0D97
:100330007408731CA929F8027508031C750FF902CB
:100340007608031C760FFA027708031C770FFB026E
:10035000B629F80775080318750FF907760803180A
:10036000760FFA0777080318770FFB07F20D0730AF
:10037000FC00720DF80DF90DFA0DFB0D7408721CDE
:10038000CF29F8027508031C750FF9027608031CC3
:10039000760FFA027708031C770FFB02DC29F807B7
:1003A00075080318750FF90776080318760FFA0712
:1003B00077080318770FFB07F20DFC0BB929710DB5
:1003C000F80DF90DFA0DFB0D7408721CF529F802F1
:1003D0007508031C750FF9027608031C760FFA02E4
:1003E0007708031C770FFB02022AF8077508031829
:1003F000750FF90776080318760FFA0777080318C0
:10040000770FFB07F10D0730FC00710DF80DF90DAA
:10041000FA0DFB0D7408711C1B2AF8027508031CE9
:10042000750FF9027608031C760FFA027708031C91
:10043000770FFB02282AF80775080318750FF907CC
:1004400076080318760FFA0777080318770FFB076B
:10045000F10DFC0B052A700DF80DF90DFA0DFB0DD1
:100460007408711C412AF8027508031C750FF90203
:100470007608031C760FFA027708031C770FFB023D
:100480004E2AF80775080318750FF9077608031840
:10049000760FFA0777080318770FFB07F00D073080
:1004A000FC00700DF80DF90DFA0DFB0D7408701CB1
:1004B000672AF8027508031C750FF9027608031CF9
:1004C000760FFA027708031C770FFB02742AF807ED
:1004D00075080318750FF90776080318760FFA07E1
:1004E00077080318770FFB07F00DFC0B512A7018E3
:1004F000872A7408F80775080318750FF907760836
:100500000318760FFA0777080318770FFB07080020
:1005100003138312B601B7011030BA002730BB00B5
:10052000B801B901BE01BF01C001C101BC01BD01DB
:100530003808350784000008F4007408003A0319ED
:10054000042B3808350784000008F40074082D3A9D
:10055000031DB12AFF30BC00BD01B80A0319B90A56
:10056000982A3808350784000008F4007408203AF7
:100570000319F42A3808350784000008F0003030E9
:10058000F800F901FA01FB017008F400F501F60129
:10059000F7017408F0007508F1007608F20077089A
:1005A000F3007808F0027908031C790FF1027A0849
:1005B000031C7A0FF2027B08031C7B0FF3023A083C
:1005C000F4003B08F500F601F701CB257008BE07E3
:1005D00071080318710FBF0772080318720FC00764
:1005E00073080318730FC1070A30F400F5013A08C5
:1005F000F0003B08F1008E267008BA007108BB00BD
:10060000B80A0319B90A982A3C083D0403190C2BAF
:100610000630BA00BB010F2B0530BA00BB01390808
:100620003B06031D152B3A0838060319312B0A30F7
:10063000F400F501F601F7013E08F0003F08F10073
:100640004008F2004108F300E8237008BE0071087A
:10065000BF007208C0007308C100B80A0319B90AC4
:100660000F2B3E08B6003F08B70000303D06031DC3
:100670003B2BFF303C06031D452B3608003CB600E3
:100680003708031C013FB701B7023608F0003708EE
:10069000F10008000313831277080319D92B73089C
:1006A0000319DE2B720876068039FA00F217F61766
:1006B000A1017208F8007108FC007008FD007408C0
:1006C000FD027508031C750FFC027608031C760FEB
:1006D000F802F801FC01FD01031C752B0310F20C5C
:1006E000F10CF00CF80C0130A1007708F302031CA8
:1006F0007F2B7E302107F3070318E12B842B7E30FC
:100700002107F307031CE42B1830FA07FD0DFC0D3D
:10071000F80DF00DF10DF20DA10D7408F002750841
:10072000031C750FF1027608031C760FF202760D9A
:10073000A104211C9D2B7D14A82B7408F0077508BB
:100740000318750FF10776080318760AF2077D1073
:10075000FA031F307A05031D862B7B1B7D1CCF2BD4
:100760000310F00DF10DF20DA10D7408F0027508E3
:10077000031C750FF1027608031C760FF202760D4A
:1007800021040139FD070318FC0A0319F80A031DA7
:10079000CF2BF80CFC0CFD0CF30A0319E12BFA1F0C
:1007A000F8137808F2007C08F1007D08F0000030B2
:1007B000E62B01308A152E208A11E62B02304927BC
:1007C000E62B04303B27E62B08302D2700000800DD
:1007D00003138312FC01F71BFC0AFD01FB01FA0164
:1007E000F901F801730872047104700403197C2C78
:1007F00073087706A000A01BFD09F71F0A2CF40957
:10080000F509F609F709F40A0319F50A0319F60AB6
:100810000319F70AF31F172CF009F109F209F3097C
:10082000F00A0319F10A0319F20A0319F30A73080B
:100830007704A000A01B382C5A21FC1B552CFD1F4F
:100840007C2CF009F109F209F309F00A0319F10A05
:100850000319F20A0319F30AF809F909FA09FB095D
:10086000F80A0319F90A0319FA0A0319FB0A7C2C7E
:10087000F71F4F2CF31B492C7308FB007208FA007A
:100880007108F9007008F800F301F201F101F001BC
:100890001F2CF301F201F101F001F00A0034F30919
:1008A000F209F109F009FC171C2CF80A0319F90ADE
:1008B0000319FA0A0319FB0A74087802031D1F2C96
:1008C00075087902031D1F2C76087A02031D1F2C60
:1008D00077087B02031D1F2CFB01FA01F901F801C7
:1008E000F00A0319F10A0319F20A0319F30AF31FB4
:1008F0001F2CA0012016FF34A0017C1C822C8A151D
:1009000000208A11003F080003138312FB017308C3
:10091000031D77080319DB2C72087606FA007708A6
:10092000F3077E30031C982CF3020318DE2C9B2C5B
:10093000F302031CE12C7208F8007108FC00700837
:10094000FD00F817F6170310F201F101F00118305D
:10095000A1007D1CB52C7408F00775080318750FED
:10096000F10776080318760FF207F20CF10CF00C81
:10097000F80CFC0CFD0C0310A10BA92CF21BC52CD0
:10098000F80DF00DF10DF20DF3037B1B701CD72C4D
:10099000F81FD72CF00A0319F10A0319F20A031DF4
:1009A000D72CF20CF10CF00CF30A0319DE2CFA1F11
:1009B000F2130030E32C01304927E32C02303B27AF
:1009C000E32C04302D2700000800031383127C1849
:1009D0001D2DFC18EE2C7C193E2DE72CA101720870
:1009E000031D0E2D7108F2007008F1007808F00068
:1009F000F801A1157208031D0E2D7108F200700890
:100A0000F100F001A11121167208031D0E2D7108CD
:100A1000F200F101A11572080319302D2108F3022B
:100A2000031D031C342D0310F21B1D2DF80DF00DBA
:100A3000F10DF20DF30B142D342D7B1B701C382D92
:100A4000F81F382DF00A0319F10A0319F20A031DE1
:100A5000382DF20CF10CF00CF30A03193E2D382D51
:100A60000130FC004927412D0230FC002D27412D8B
:100A70000430FC008A1528208A11412D0830FC0022
:100A80003B270000080003138312B701B801BB0124
:100A9000360884000008BA008A150E208A117008F2
:100AA000003A03197E2DE6267008B900370835078D
:100AB000F100710884007108840070088000390812
:100AC0003A06031D682D38083702BB00B80A6A2DA4
:100AD000B801BB013808360784000008F10071082E
:100AE000BA007108003A031D762D7F2DB70A37082A
:100AF000143C03187E2D1330BB007F2D4C2D3B087A
:100B00003507F00070088400700884008001080038
:100B100003138312FB01FC01FA0173080319B52DBD
:100B2000FA13F2178630F302F31B992D0319992D4E
:100B3000B72DF309F30A08307302031CA62DF30046
:100B4000F20DF2017308031D0310AD2D7308031994
:100B5000AD2D0310F20CF30BA92D7B1B721CB52DD0
:100B6000031CB52DF20A0319BC2DF101BF2D7B1416
:100B7000FB1FC22DF101C22D0130FC00C42D00303D
:100B8000FC00C42DFF30FC00FC080319C82D1E27F3
:100B90007208F000080003138312FD01F31FDD2D1E
:100BA000F009F109F209F309F00A0319F10A03192E
:100BB000F20A0319F30A8130FD07F71FEB2DF40940
:100BC000F509F609F709F40A0319F50A0319F60AF3
:100BD0000319F70AFD0A39267D1C052EF009F109D3
:100BE000F209F309F809F909FA09FB09F00A0319EE
:100BF000F10A0319F20A0319F30A0319F80A03198F
:100C0000F90A0319FA0A0319FB0A080003138312ED
:100C1000A1017208031D1D2E7108F2007008F10079
:100C2000F001A1157208031D1D2E7108F200F101DB
:100C3000A1112116720803192B2E2108F302031D9E
:100C4000031C2F2E0310F21B332EF00DF10DF20DAD
:100C5000F30B232E2F2E0130FC004927382E0230B3
:100C6000FC002D27382E0430FC008A1528208A111C
:100C70000800031383122230FC00F801F901FA0185
:100C8000FB01FC0303196F2E0310FB0CFA0CF90C8B
:100C9000F80CF30CF20CF10CF00C031C412EFC03CD
:100CA0000319612E7408F80775080318750FF90702
:100CB00076080318760FFA0777080318770FFB07F3
:100CC000452E7408F80775080318750FF90776089C
:100CD0000318760FFA0777080318770FFB07080049
:100CE000031383127008F8007108F000F101F2019B
:100CF000F301FB01FC019630F300FA01F01F862E90
:100D0000F809F009F80A0319F00AFA177008F10057
:100D10007808F000F801F201062608000313831298
:100D2000F801F9011030FC00710DF80DF90D74088F
:100D3000F8027508031C750FF9020318A62E740833
:100D4000F80775080318750FF9070310F00DF10D7A
:100D5000FC0B942E080003138312B601350884009F
:100D60000008B7003708003A0319C02E3708C20040
:100D70000C27B60A3608350784000008B700B22EE3
:100D80000800031383169816903083129800831678
:100D90008616861783120C08F1000030F11A013014
:100DA000F1007108013A0319CA2E080003138312D7
:100DB0007008F800FB01FC019E30F300FA01F2011B
:100DC000F101F0010230FC00E52408000313831256
:100DD0001A08C2001808F1000030F1180130F100C3
:100DE0007108013A031DF62E181218164208F00079
:100DF0000800031383123508930083161408F100CA
:100E00000130F1057108003A031D082F0000FD2E86
:100E100083121308B6000800031383161808F100A4
:100E20000030F1180130F1007108003A031D1A2F4B
:100E300000000C2F8312420899000800031383124C
:100E40007B14FB1F2B2FF201FA1FFF30F200F10081
:100E5000F000FA0DF20CFF300800031383127B152B
:100E6000FB1F392F0130F300F201F101F001FA0DFF
:100E7000F20CFF30080003138312FB14FB1F472FF3
:100E8000FF30F300F200F100F000FA0DF20CFF3039
:100E9000080003138312F201F101F001F801F301DC
:100EA00000300800FF3FFF3FFF3FFF3FFF3FFF3F96
:100EB000FF3FFF3FFF3FFF3FFF3FFF3FFF3FFF3F42
:100EC000FF3FFF3FFF3FFF3FFF3FFF3FFF3FFF3F32
:100ED000FF3FFF3FFF3FFF3FFF3FFF3FFF3FFF3F22
:100EE000FF3FFF3FFF3FFF3FFF3FFF3FFF3FFF3F12
:100EF000FF3FFF3FFF3FFF3FFF3FFF3FFF3FFF3F02
:100F0000FF3FFF3FFF3FFF3FFF3FFF3FFF3FFF3FF1
:100F1000FF3FFF3FFF3FFF3FFF3FFF3FFF3FFF3FE1
:100F2000FF3FFF3FFF3FFF3FFF3FFF3FFF3FFF3FD1
:100F3000FF3FFF3FFF3FFF3FFF3FFF3FFF3FFF3FC1
:100F4000FF3FFF3FFF3FFF3FFF3FFF3FFF3FFF3FB1
:100F5000FF3FFF3FFF3FFF3FFF3FFF3FFF3FFF3FA1
:100F6000FF3FFF3FFF3FFF3FFF3FFF3FFF3FFF3F91
:100F7000FF3FFF3FFF3FFF3FFF3FFF3FFF3FFF3F81
:100F8000FF3FFF3FFF3FFF3FFF3FFF3FFF3FFF3F71
:100F9000FF3FFF3FFF3FFF3FFF3FFF3FFF3FFF3F61
:100FA000FF3FFF3FFF3FFF3FFF3FFF3FFF3FFF3F51
:100FB000FF3FFF3FFF3FFF3FFF3FFF3FFF3FFF3F41
:100FC000FF3FFF3FFF3FFF3FFF3FFF3FFF3FFF3F31
:100FD000FF3FFF3FFF3FFF3FFF3FFF3FFF3FFF3F21
:100FE000FF3FFF3FFF3FFF3FFF3FFF3FFF3FFF3F11
:100FF000FF3FFF3FFF3FFF3FFF3FFF3FFF3FFF3F01
:1010000003138312FB09FA09F909F809F80A03190D
:10101000F90A0319FA0A0319FB0A080003138312D9
:101020000C08F1000030F11A0130F1007108C20023
:101030004208F000080003138316871306130616F0
:101040008312940140308316940083129416080092
:1010500003138312FA1FF2130030080003138312E4
:10106000FB15FF300800FF3FFF3FFF3FFF3FFF3F03
:02400E00C430BC
:00000001FF
