:100000000428FF3FFF3FFF3FFF30031383168500A7
:100010003F30860087018B01031783129E019F01E9
:10002000031385018601870119308316990018157D
:100030009824071487140715E12407101130AE0027
:10004000AD24AE01AD24071487101130AE00AD24ED
:10005000AE01AD24871407111130AE00AD24AE01FE
:10006000AD240715EE247008003C03183A2921300E
:10007000AE002F30AC00AD012C30AF00C6232130D4
:10008000AE006A227008A8007108A9008030033A07
:10009000F300803071067302031D50287008E73C9E
:1000A000FF3003180030F30080307106F20080301A
:1000B000103A7202031D5E28A0307002FF30031850
:1000C0000030F20072087305F00003193A298030FD
:1000D0002906F2008030033A7202031D7128E830CD
:1000E0002802FF30031C0030F20080302906F000A7
:1000F0008030043A7002031D7F28E8302802FF3068
:1001000003180030F0007208F00503199028013040
:10011000AA00AB01E830A802031CA9030330A9021E
:1001200080302906F2008030073A7202031D9A28B7
:10013000D0302802FF30031C0030F2008030290646
:10014000F0008030083A7002031DA828D030280241
:10015000FF3003180030F0007208F0050319B928C9
:100160000230AA00AB01D030A802031CA90307305B
:10017000A90280302906F20080300B3A7202031D7A
:10018000C328B8302802FF30031C0030F200803052
:100190002906F00080300C3A7002031DD128B830D7
:1001A0002802FF3003180030F0007208F005031930
:1001B000E2280330AA00AB01B830A802031CA9034F
:1001C0000B30A90280302906F20080300F3A72020B
:1001D000031DEC28A0302802FF30031C0030F20081
:1001E00080302906F0008030103A7002031DFA2892
:1001F000A0302802FF3003180030F0007208F0052C
:1002000003190B290430AA00AB01A030A802031C7B
:10021000A9030F30A90200302B06031D112901305C
:100220002A06031D1429071000302B06031D1A2966
:1002300002302A06031D1D29871000302B06031DDE
:10024000232903302A06031D2629071100302B0617
:10025000031D2C2904302A06031D3129071087109D
:1002600007111130AE00AD242808AE00AD240714EC
:100270008714071532283B29031383127408F802E8
:100280007508031C750FF9027608031C760FFA0235
:100290007708031C770FFB02F30D0730FC00730D8A
:1002A000F80DF90DFA0DFB0D7408731C6529F802A1
:1002B0007508031C750FF9027608031C760FFA0205
:1002C0007708031C770FFB027229F80775080318DB
:1002D000750FF90776080318760FFA0777080318E1
:1002E000770FFB07F30DFC0B4F29720DF80DF90D7D
:1002F000FA0DFB0D7408731C8B29F8027508031C9A
:10030000750FF9027608031C760FFA027708031CB2
:10031000770FFB029829F80775080318750FF9077E
:1003200076080318760FFA0777080318770FFB078C
:10033000F20D0730FC00720DF80DF90DFA0DFB0DF2
:100340007408721CB129F8027508031C750FF902B4
:100350007608031C760FFA027708031C770FFB025E
:10036000BE29F80775080318750FF90776080318F2
:10037000760FFA0777080318770FFB07F20DFC0BCF
:100380009B29710DF80DF90DFA0DFB0D7408721C07
:10039000D729F8027508031C750FF9027608031CAB
:1003A000760FFA027708031C770FFB02E429F8079F
:1003B00075080318750FF90776080318760FFA0702
:1003C00077080318770FFB07F10D0730FC00710D5C
:1003D000F80DF90DFA0DFB0D7408711CFD29F802DA
:1003E0007508031C750FF9027608031C760FFA02D4
:1003F0007708031C770FFB020A2AF8077508031811
:10040000750FF90776080318760FFA0777080318AF
:10041000770FFB07F10DFC0BE729700DF80DF90DB7
:10042000FA0DFB0D7408711C232AF8027508031CD1
:10043000750FF9027608031C760FFA027708031C81
:10044000770FFB02302AF80775080318750FF907B4
:1004500076080318760FFA0777080318770FFB075B
:10046000F00D0730FC00700DF80DF90DFA0DFB0DC5
:100470007408701C492AF8027508031C750FF902EC
:100480007608031C760FFA027708031C770FFB022D
:10049000562AF80775080318750FF9077608031828
:1004A000760FFA0777080318770FFB07F00DFC0BA0
:1004B000332A7018692A7408F80775080318750F2D
:1004C000F90776080318760FFA0777080318770FED
:1004D000FB07080003138312AF01B0011030B30013
:1004E0002730B400B101B201B701B801B901BA01B6
:1004F000B501B60131082E0784000008F400740825
:10050000003A0319E62A31082E0784000008F40097
:1005100074082D3A031D932AFF30B500B601B10AC5
:100520000319B20A7A2A31082E0784000008F40061
:100530007408203A0319D62A31082E0784000008CF
:10054000F0003030F800F901FA01FB017008F40006
:10055000F501F601F7017408F0007508F10076085E
:10056000F2007708F3007808F0027908031C790F8D
:10057000F1027A08031C7A0FF2027B08031C7B0F3E
:10058000F3023308F4003408F500F601F7010924FA
:100590007008B70771080318710FB80772080318BD
:1005A000720FB90773080318730FBA070A30F40003
:1005B000F5013308F0003408F1007B247008B30023
:1005C0007108B400B10A0319B20A7A2A3508360450
:1005D0000319EE2A0630B300B401F12A0530B30046
:1005E000B40132083406031DF72A33083106031913
:1005F000132B0A30F400F501F601F7013708F0007B
:100600003808F1003908F2003A08F3002C2370088A
:10061000B7007108B8007208B9007308BA00B10ACF
:100620000319B20AF12A3708AF003808B0000030C9
:100630003606031D1D2BFF303506031D272B2F0803
:10064000003CAF003008031C013FB001B0022F088E
:10065000F0003008F100080003138312FC01F71BBF
:10066000FC0AFD01FB01FA01F901F80173087204AB
:10067000710470040319C02B73087706A000A01B37
:10068000FD09F71F4E2BF409F509F609F709F40ADD
:100690000319F50A0319F60A0319F70AF31F5B2B6E
:1006A000F009F109F209F309F00A0319F10A031933
:1006B000F20A0319F30A73087704A000A01B7C2B2D
:1006C0003C21FC1B992BFD1FC02BF009F109F209FD
:1006D000F309F00A0319F10A0319F20A0319F30ADC
:1006E000F809F909FA09FB09F80A0319F90A0319C3
:1006F000FA0A0319FB0AC02BF71F932BF31B8D2B50
:100700007308FB007208FA007108F9007008F8001D
:10071000F301F201F101F001632BF301F201F101A8
:10072000F001F00A0034F309F209F109F009FC17AD
:10073000602BF80A0319F90A0319FA0A0319FB0ACC
:1007400074087802031D632B75087902031D632B5F
:1007500076087A02031D632B77087B02031D632B47
:10076000FB01FA01F901F801F00A0319F10A031972
:10077000F20A0319F30AF31F632BA0012016FF34BA
:10078000A0017C1CC42BD324003F08000313831258
:10079000B001B101B4012F0884000008B300EE24B9
:1007A0007008003A0319FF2BC0247008B20030080B
:1007B0002E07F10071088400710884007008800021
:1007C00032083306031DE92B31083002B400B10AA8
:1007D000EB2BB101B40131082F0784000008F100B0
:1007E0007108B3007108003A031DF72B002CB00A02
:1007F0003008143C0318FF2B1330B400002CCF2B0F
:1008000034082E07F000700884007008840080010E
:10081000080003138312FD01F31F1B2CF009F109DB
:10082000F209F309F00A0319F10A0319F20A03198C
:10083000F30A8130FD07F71F292CF409F509F609A1
:10084000F709F40A0319F50A0319F60A0319F70A56
:10085000FD0A44247D1C432CF009F109F209F30937
:10086000F809F909FA09FB09F00A0319F10A031951
:10087000F20A0319F30A0319F80A0319F90A03190A
:10088000FA0A0319FB0A0800031383122230FC0042
:10089000F801F901FA01FB01FC0303197A2C03109A
:1008A000FB0CFA0CF90CF80CF30CF20CF10CF00C3C
:1008B000031C4C2CFC0303196C2C7408F8077508F6
:1008C0000318750FF90776080318760FFA077708EB
:1008D0000318770FFB07502C7408F80775080318E6
:1008E000750FF90776080318760FFA0777080318CB
:1008F000770FFB07080003138312F801F90110308A
:10090000FC00710DF80DF90D7408F8027508031C50
:10091000750FF9020318932C7408F807750803186B
:10092000750FF9070310F00DF10DFC0B812C080079
:100930000313831698169030831298008316861638
:10094000861783120C08F1000030F11A0130F10013
:100950007108013A0319A12C0800031383122E0811
:10096000930083161408F1000130F1057108003A74
:10097000031DBC2C0000B12C83121308AF0008002B
:10098000031383121A08BB001808F1000030F11895
:100990000130F1007108013A031DD02C181218160D
:1009A0003B08F000080003138312FB09FA09F90958
:1009B000F809F80A0319F90A0319FA0A0319FB0AD4
:1009C0000800031383168713061306168312940177
:1009D0004030831694008312941608000313831288
:1009E0000C08F1000030F11A0130F1007108BB0071
:1009F0003B08F0000800FF3FFF3FFF3FFF3FFF3F86
:02400E00C430BC
:00000001FF
