:100000000428FF3FFF3FFF3FFF30031383168500A7
:100010003F30860087018B01031783129E019F01E9
:10002000031385018601870119308316990018157D
:10003000FD260714871407158A1546208A11071014
:100040001130B7003527B701352707148710113055
:10005000B7003527B7013527871407111130B700CE
:100060003527B701352707158A1539208A117008F9
:10007000003C031884292230B7002F30B100B201B0
:100080003130B8007B252230B700B4227008A900B7
:100090007108AA008030F500803071067502031DDA
:1000A00053287008093CFF3003180030F5008030F9
:1000B0007106F40080307402031D60282E30700237
:1000C000FF3003180030F40074087505F0000319C0
:1000D000842980302A06F40080307402031D7228BF
:1000E0000A302902FF30031C0030F40080302A0659
:1000F000F00080307002031D7F2810302902FF308D
:1001000003180030F0007408F00503198E28013040
:10011000AB00AC010A30A902031CAA0380302A06F6
:10012000F40080307402031D972814302902FF3038
:10013000031C0030F40080302A06F000803070028A
:10014000031DA4281A302902FF3003180030F000E4
:100150007408F0050319B3280230AB00AC01143069
:10016000A902031CAA0380302A06F400803074021E
:10017000031DBC281E302902FF30031C0030F40090
:1001800080302A06F00080307002031DC928243018
:100190002902FF3003180030F0007408F00503193D
:1001A000D8280330AB00AC011E30A902031CAA03FF
:1001B00080302A06F40080307402031DE1282830C4
:1001C0002902FF30031C0030F40080302A06F000C2
:1001D00080307002031DEE282E302902FF300318F4
:1001E0000030F0007408F0050319FD280430AB005E
:1001F000AC012830A902031CAA032908F0002A0830
:10020000F100AC267008B3007108B4007208B500A4
:100210007308B600FF30F00012273308F4003408EA
:10022000F5003508F6003608F700B4247008B3006E
:100230007108B4007208B5007308B6000530F0000C
:1002400012277008F4007108F5007208F6007308B0
:10025000F7003308F0003408F1003508F2003608E2
:10026000F30076237008AD007108AE007208AF008D
:100270007308B00000302C06031D402901302B0606
:10028000031D4329071000302C06031D49290230A5
:100290002B06031D4C29871000302C06031D522904
:1002A00003302B06031D5529071100302C06031DB2
:1002B0005B2904302B06031D6029071087100711E6
:1002C0001130B70035272D08F0002E08F1002F0857
:1002D000F2003008F300C0257008B7003527071476
:1002E000871407150D30FB00FF30FA00FB0B79294E
:1002F0007C29FA0B79297629F330FA00FA0B7E294A
:1003000000002230B700E726342885290313831222
:100310007408F8027508031C750FF9027608031CAF
:10032000760FFA027708031C770FFB02F30D0730F4
:10033000FC00730DF80DF90DFA0DFB0D7408731C1C
:10034000AF29F8027508031C750FF9027608031C23
:10035000760FFA027708031C770FFB02BC29F80717
:1003600075080318750FF90776080318760FFA0752
:1003700077080318770FFB07F30DFC0B9929720D13
:10038000F80DF90DFA0DFB0D7408731CD529F80250
:100390007508031C750FF9027608031C760FFA0224
:1003A0007708031C770FFB02E229F807750803188A
:1003B000750FF90776080318760FFA077708031800
:1003C000770FFB07F20D0730FC00720DF80DF90DE9
:1003D000FA0DFB0D7408721CFB29F8027508031C4A
:1003E000750FF9027608031C760FFA027708031CD2
:1003F000770FFB02082AF80775080318750FF9072D
:1004000076080318760FFA0777080318770FFB07AB
:10041000F20DFC0BE529710DF80DF90DFA0DFB0D30
:100420007408721C212AF8027508031C750FF90262
:100430007608031C760FFA027708031C770FFB027D
:100440002E2AF80775080318750FF90776080318A0
:10045000760FFA0777080318770FFB07F10D0730BF
:10046000FC00710DF80DF90DFA0DFB0D7408711CEF
:10047000472AF8027508031C750FF9027608031C59
:10048000760FFA027708031C770FFB02542AF8074D
:1004900075080318750FF90776080318760FFA0721
:1004A00077080318770FFB07F10DFC0B312A700D4D
:1004B000F80DF90DFA0DFB0D7408711C6D2AF80288
:1004C0007508031C750FF9027608031C760FFA02F3
:1004D0007708031C770FFB027A2AF80775080318C0
:1004E000750FF90776080318760FFA0777080318CF
:1004F000770FFB07F00D0730FC00700DF80DF90DBC
:10050000FA0DFB0D7408701C932AF8027508031C81
:10051000750FF9027608031C760FFA027708031CA0
:10052000770FFB02A02AF80775080318750FF90763
:1005300076080318760FFA0777080318770FFB077A
:10054000F00DFC0B7D2A7018B32A7408F8077508A3
:100550000318750FF90776080318760FFA0777085E
:100560000318770FFB07080003138312B801B901C2
:100570001030BC002730BD00BA01BB01C001C10171
:10058000C201C301BE01BF013A0837078400000859
:10059000F4007408003A0319302B3A083707840036
:1005A0000008F40074082D3A031DDD2AFF30BE0058
:1005B000BF01BA0A0319BB0AC42A3A0837078400E4
:1005C0000008F4007408203A0319202B3A08370772
:1005D00084000008F0003030F800F901FA01FB0156
:1005E0007008F400F501F601F7017408F0007508D1
:1005F000F1007608F2007708F3007808F002790835
:10060000031C790FF1027A08031C7A0FF2027B08AF
:10061000031C7B0FF3023C08F4003D08F500F601D3
:10062000F70105267008C00771080318710FC1078C
:1006300072080318720FC20773080318730FC307F9
:100640000A30F400F5013C08F0003D08F100CA262C
:100650007008BC007108BD00BA0A0319BB0AC42A9D
:100660003E083F040319382B0630BC00BD013B2B6C
:100670000530BC00BD013B083D06031D412B3C0875
:100680003A0603195D2B0A30F400F501F601F70173
:100690004008F0004108F1004208F2004308F3006E
:1006A00018247008C0007108C1007208C2007308E5
:1006B000C300BA0A0319BB0A3B2B4008B800410823
:1006C000B90000303F06031D672BFF303E06031DB7
:1006D000712B3808003CB8003908031C013FB901F0
:1006E000B9023808F0003908F1000800031383123A
:1006F00077080319052C730803190A2C720876066B
:100700008039FA00F217F617A1017208F800710893
:10071000FC007008FD007408FD027508031C750FCD
:10072000FC027608031C760FF802F801FC01FD01BB
:10073000031CA12B0310F20CF10CF00CF80C01308F
:10074000A1007708F302031CAB2B7E302107F307CF
:1007500003180D2CB02B7E302107F307031C122C3D
:100760001830FA07FD0DFC0DF80DF00DF10DF20D2E
:10077000A10D7408F0027508031C750FF1027608CC
:10078000031C760FF202760DA104211CC92B7D14E7
:10079000D42B7408F00775080318750FF107760855
:1007A0000318760AF2077D10FA031F307A05031D3D
:1007B000B22B7B1B7D1CFB2B0310F00DF10DF20DFA
:1007C000A10D7408F0027508031C750FF10276087C
:1007D000031C760FF202760D21040139FD07031880
:1007E000FC0A0319F80A031DFB2BF80CFC0CFD0C8A
:1007F000F30A03190D2CFA1FF8137808F2007C088D
:10080000F1007D08F0000030162C01308A155920C7
:100810008A11162C02305A27162C04308A151D20F6
:100820008A11162C08308A150F208A110000080042
:1008300003138312FC01F71BFC0AFD01FB01FA0103
:10084000F901F80173087204710470040319AC2CE7
:1008500073087706A000A01BFD09F71F3A2CF409C6
:10086000F509F609F709F40A0319F50A0319F60A56
:100870000319F70AF31F472CF009F109F209F309EC
:10088000F00A0319F10A0319F20A0319F30A7308AB
:100890007704A000A01B682C8621FC1B852CFD1F63
:1008A000AC2CF009F109F209F309F00A0319F10A75
:1008B0000319F20A0319F30AF809F909FA09FB09FD
:1008C000F80A0319F90A0319FA0A0319FB0AAC2CEE
:1008D000F71F7F2CF31B792C7308FB007208FA00BA
:1008E0007108F9007008F800F301F201F101F0015C
:1008F0004F2CF301F201F101F001F00A0034F30989
:10090000F209F109F009FC174C2CF80A0319F90A4D
:100910000319FA0A0319FB0A74087802031D4F2C05
:1009200075087902031D4F2C76087A02031D4F2C9F
:1009300077087B02031D4F2CFB01FA01F901F80136
:10094000F00A0319F10A0319F20A0319F30AF31F53
:100950004F2CA0012016FF34A0017C1CB22C8A155C
:100960002B208A11003F080003138312FB01730838
:10097000031D770803190B2D72087606FA00770815
:10098000F3077E30031CC82CF30203180E2DCB2C6A
:10099000F302031C132D7208F8007108FC007008A4
:1009A000FD00F817F6170310F201F101F0011830FD
:1009B000A1007D1CE52C7408F00775080318750F5D
:1009C000F10776080318760FF207F20CF10CF00C21
:1009D000F80CFC0CFD0C0310A10BD92CF21BF52C10
:1009E000F80DF00DF10DF20DF3037B1B701C072DBC
:1009F000F81F072DF00A0319F10A0319F20A031D63
:100A0000072DF20CF10CF00CF30A03190E2DFA1F4E
:100A1000F2130030172D01305A27172D02308A1596
:100A20001D208A11172D04308A150F208A1100000D
:100A30000800031383127C18512DFC18222D7C19F9
:100A4000742D1B2DA1017208031D422D7108F200A7
:100A50007008F1007808F000F801A1157208031D74
:100A6000422D7108F2007008F100F001A111211669
:100A70007208031D422D7108F200F101A1157208E0
:100A80000319642D2108F302031D031C682D0310B4
:100A9000F21B512DF80DF00DF10DF20DF30B482D59
:100AA000682D7B1B701C6E2DF81F6E2DF00A03192C
:100AB000F10A0319F20A031D6E2DF20CF10CF00C71
:100AC000F30A0319742D6E2D0130FC005A27792D7D
:100AD0000230FC008A150F208A11792D0430FC00A9
:100AE0008A1553208A11792D0830FC008A151D20A3
:100AF0008A110000080003138312B901BA01BD0175
:100B0000380884000008BC008A1539208A11700852
:100B1000003A0319B62D22277008BB0039083707A1
:100B2000F1007108840071088400700880003B089F
:100B30003C06031DA02D3A083902BD00BA0AA22DB9
:100B4000BA01BD013A08380784000008F1007108B5
:100B5000BC007108003A031DAE2DB72DB90A390843
:100B6000143C0318B62D1330BD00B72D842D3D085D
:100B70003707F000700884007008840080010800C6
:100B800003138312FB01FC01FA0173080319ED2D15
:100B9000FA13F2178630F302F31BD12D0319D12D6E
:100BA000EF2DF309F30A08307302031CDE2DF30066
:100BB000F20DF2017308031D0310E52D73080319EC
:100BC000E52D0310F20CF30BE12D7B1B721CED2DB8
:100BD000031CED2DF20A0319F42DF101F72D7B14FE
:100BE000FB1FFA2DF101FA2D0130FC00FC2D003025
:100BF000FC00FC2DFF30FC00FC080319022E8A15B6
:100C000000208A117208F000080003138312FD010E
:100C1000F31F172EF009F109F209F309F00A03197D
:100C2000F10A0319F20A0319F30A8130FD07F71FCD
:100C3000252EF409F509F609F709F40A0319F50A4E
:100C40000319F60A0319F70AFD0A75267D1C3F2EC3
:100C5000F009F109F209F309F809F909FA09FB09A0
:100C6000F00A0319F10A0319F20A0319F30A031926
:100C7000F80A0319F90A0319FA0A0319FB0A08000A
:100C800003138312A1017208031D572E7108F2008D
:100C90007008F100F001A1157208031D572E7108AC
:100CA000F200F101A111211672080319652E210825
:100CB000F302031D031C692E0310F21B6F2EF00DAF
:100CC000F10DF20DF30B5D2E692E0130FC005A2759
:100CD000742E0230FC008A150F208A11742E043005
:100CE000FC008A1553208A11080003138312223056
:100CF000FC00F801F901FA01FB01FC030319AB2E1A
:100D00000310FB0CFA0CF90CF80CF30CF20CF10CC0
:100D1000F00C031C7D2EFC0303199D2E7408F807AC
:100D200075080318750FF90776080318760FFA0788
:100D300077080318770FFB07812E7408F8077508EA
:100D40000318750FF90776080318760FFA07770866
:100D50000318770FFB070800031383127008F800CD
:100D60007108F000F101F201F301FB01FC01963082
:100D7000F300FA01F01FC22EF809F009F80A03196E
:100D8000F00AFA177008F1007808F000F801F20193
:100D90004026080003138312F801F9011030FC000B
:100DA000710DF80DF90D7408F8027508031C750F24
:100DB000F9020318E22E7408F80775080318750F76
:100DC000F9070310F00DF10DFC0BD02E08000313F2
:100DD0008312B801370884000008B9003908003AC6
:100DE0000319FC2E3908C4004827B80A3808370709
:100DF00084000008B900EE2E08000313831698162D
:100E000090308312980083168616861783120C087A
:100E1000F1000030F11A0130F1007108013A0319B4
:100E2000062F0800031383127008F800FB01FC0171
:100E30009E30F300FA01F201F101F0010230FC00F2
:100E400019250800031383121A08C4001808F100BA
:100E50000030F1180130F1007108013A031D322F02
:100E6000181218164408F0000800031383123708FC
:100E7000930083161408F1000130F1057108003A5F
:100E8000031D442F0000392F83121308B8000800F7
:100E9000031383161808F1000030F1180130F10037
:100EA0007108003A031D562F0000482F8312440892
:100EB0009900080003138312F201F101F001F80117
:100EC000F30100300800FF3FFF3FFF3FFF3FFF3FC0
:100ED000FF3FFF3FFF3FFF3FFF3FFF3FFF3FFF3F22
:100EE000FF3FFF3FFF3FFF3FFF3FFF3FFF3FFF3F12
:100EF000FF3FFF3FFF3FFF3FFF3FFF3FFF3FFF3F02
:100F0000FF3FFF3FFF3FFF3FFF3FFF3FFF3FFF3FF1
:100F1000FF3FFF3FFF3FFF3FFF3FFF3FFF3FFF3FE1
:100F2000FF3FFF3FFF3FFF3FFF3FFF3FFF3FFF3FD1
:100F3000FF3FFF3FFF3FFF3FFF3FFF3FFF3FFF3FC1
:100F4000FF3FFF3FFF3FFF3FFF3FFF3FFF3FFF3FB1
:100F5000FF3FFF3FFF3FFF3FFF3FFF3FFF3FFF3FA1
:100F6000FF3FFF3FFF3FFF3FFF3FFF3FFF3FFF3F91
:100F7000FF3FFF3FFF3FFF3FFF3FFF3FFF3FFF3F81
:100F8000FF3FFF3FFF3FFF3FFF3FFF3FFF3FFF3F71
:100F9000FF3FFF3FFF3FFF3FFF3FFF3FFF3FFF3F61
:100FA000FF3FFF3FFF3FFF3FFF3FFF3FFF3FFF3F51
:100FB000FF3FFF3FFF3FFF3FFF3FFF3FFF3FFF3F41
:100FC000FF3FFF3FFF3FFF3FFF3FFF3FFF3FFF3F31
:100FD000FF3FFF3FFF3FFF3FFF3FFF3FFF3FFF3F21
:100FE000FF3FFF3FFF3FFF3FFF3FFF3FFF3FFF3F11
:100FF000FF3FFF3FFF3FFF3FFF3FFF3FFF3FFF3F01
:10100000031383127B14FB1F0D28F201FA1FFF301C
:10101000F200F100F000FA0DF20CFF3008000313AB
:1010200083127B15FB1F1B280130F300F201F10135
:10103000F001FA0DF20CFF30080003138312FB14C9
:10104000FB1F2928FF30F300F200F100F000FA0D39
:10105000F20CFF30080003138312FB09FA09F909A7
:10106000F809F80A0319F90A0319FA0A0319FB0A1D
:101070000800031383120C08F1000030F11A01304C
:10108000F1007108C4004408F0000800031383163F
:1010900087130613061683129401403083169400BA
:1010A00083129416080003138312FA1FF213003000
:1010B000080003138312FB15FF300800FF3FFF3FBA
:02400E00C430BC
:00000001FF
