:100000000428FF3FFF3FFF3FFF30031383168500A7
:100010003F30860087018B01031783129E019F01E9
:10002000031385018601870119308316990018157D
:100030009424071487140715EF2407101130AC001F
:10004000BC24AC01BC24071487101130AC00BC24C4
:10005000AC01BC24871407111130AC00BC24AC01E6
:10006000BC240715FC247008003C0318202921300B
:10007000AC002F30AA00AB012A30AD00AC232130F8
:10008000AC0050227008A8007108A9008030033A23
:10009000F300803071067302031D50287008E73C9E
:1000A000FF3003180030F30080307106F20080301A
:1000B000103A7202031D5E28A0307002FF30031850
:1000C0000030F20072087305F00003191D2980301A
:1000D0002906F2008030033A7202031D7128E830CD
:1000E0002802FF30031C0030F20080302906F000A7
:1000F0008030043A7002031D7F28E8302802FF3068
:1001000003180030F0007208F00503198E2807105C
:10011000E830A802031CA9030330A9028030290695
:10012000F2008030073A7202031D9828D03028026E
:10013000FF30031C0030F20080302906F0008030D0
:10014000083A7002031DA628D0302802FF30031899
:100150000030F0007208F0050319B5288710D03080
:10016000A802031CA9030730A90280302906F20067
:1001700080300B3A7202031DBF28B8302802FF30CE
:10018000031C0030F20080302906F00080300C3A69
:100190007002031DCD28B8302802FF30031800304C
:1001A000F0007208F0050319DC280711B830A80226
:1001B000031CA9030B30A90280302906F20080300D
:1001C0000F3A7202031DE628A0302802FF30031CFC
:1001D0000030F20080302906F0008030103A7002C2
:1001E000031DF428A0302802FF3003180030F0006F
:1001F0007208F00503190529071087100711A030B0
:10020000A802031CA9030F30A9021130AC00BC24C2
:100210002808AC00BC240714871407150D30FB0018
:10022000FF30FA00FB0B15291829FA0B15291229A2
:10023000F330FA00FA0B1A2900002130AC007E24BA
:1002400032282129031383127408F8027508031C4D
:10025000750FF9027608031C760FFA027708031C63
:10026000770FFB02F30D0730FC00730DF80DF90D4D
:10027000FA0DFB0D7408731C4B29F8027508031C5A
:10028000750FF9027608031C760FFA027708031C33
:10029000770FFB025829F80775080318750FF9073F
:1002A00076080318760FFA0777080318770FFB070D
:1002B000F30DFC0B3529720DF80DF90DFA0DFB0D40
:1002C0007408731C7129F8027508031C750FF90274
:1002D0007608031C760FFA027708031C770FFB02DF
:1002E0007E29F80775080318750FF90776080318B3
:1002F000760FFA0777080318770FFB07F20D073020
:10030000FC00720DF80DF90DFA0DFB0D7408721C4E
:100310009729F8027508031C750FF9027608031C6B
:10032000760FFA027708031C770FFB02A429F8075F
:1003300075080318750FF90776080318760FFA0782
:1003400077080318770FFB07F20DFC0B8129710D5D
:10035000F80DF90DFA0DFB0D7408721CBD29F80299
:100360007508031C750FF9027608031C760FFA0254
:100370007708031C770FFB02CA29F80775080318D2
:10038000750FF90776080318760FFA077708031830
:10039000770FFB07F10D0730FC00710DF80DF90D1B
:1003A000FA0DFB0D7408711CE329F8027508031C93
:1003B000750FF9027608031C760FFA027708031C02
:1003C000770FFB02F029F80775080318750FF90776
:1003D00076080318760FFA0777080318770FFB07DC
:1003E000F10DFC0BCD29700DF80DF90DFA0DFB0D7B
:1003F0007408711C092AF8027508031C750FF902AC
:100400007608031C760FFA027708031C770FFB02AD
:10041000162AF80775080318750FF90776080318E8
:10042000760FFA0777080318770FFB07F00D0730F0
:10043000FC00700DF80DF90DFA0DFB0D7408701C21
:100440002F2AF8027508031C750FF9027608031CA1
:10045000760FFA027708031C770FFB023C2AF80795
:1004600075080318750FF90776080318760FFA0751
:1004700077080318770FFB07F00DFC0B192A70188B
:100480004F2A7408F80775080318750FF9077608DE
:100490000318760FFA0777080318770FFB07080091
:1004A00003138312AD01AE011030B1002730B2004A
:1004B000AF01B001B501B601B701B801B301B40194
:1004C0002F082C0784000008F4007408003A031970
:1004D000CC2A2F082C0784000008F40074082D3A59
:1004E000031D792AFF30B300B401AF0A0319B00A23
:1004F000602A2F082C0784000008F4007408203AB2
:100500000319BC2A2F082C0784000008F0003030A3
:10051000F800F901FA01FB017008F400F501F60199
:10052000F7017408F0007508F1007608F20077080A
:10053000F3007808F0027908031C790FF1027A08B9
:10054000031C7A0FF2027B08031C7B0FF3023108B5
:10055000F4003208F500F601F701EF237008B50743
:1005600071080318710FB60772080318720FB707E6
:1005700073080318730FB8070A30F400F501310847
:10058000F0003208F10061247008B1007108B20077
:10059000AF0A0319B00A602A330834040319D42AB5
:1005A0000630B100B201D72A0530B100B2013008DF
:1005B0003206031DDD2A31082F060319F92A0A30F5
:1005C000F400F501F601F7013508F0003608F100F6
:1005D0003708F2003808F30012237008B5007108DC
:1005E000B6007208B7007308B800AF0A0319B00A62
:1005F000D72A3508AD003608AE0000303406031D9A
:10060000032BFF303306031D0D2B2D08003CAD00DE
:100610002E08031C013FAE01AE022D08F0002E088B
:10062000F100080003138312FC01F71BFC0AFD0113
:10063000FB01FA01F901F8017308720471047004F6
:100640000319A62B73087706A000A01BFD09F71F4E
:10065000342BF409F509F609F709F40A0319F50A28
:100660000319F60A0319F70AF31F412BF009F109E0
:10067000F209F309F00A0319F10A0319F20A03193E
:10068000F30A73087704A000A01B622B2221FC1B35
:100690007F2BFD1FA62BF009F109F209F309F00ADF
:1006A0000319F10A0319F20A0319F30AF809F909FF
:1006B000FA09FB09F80A0319F90A0319FA0A0319D6
:1006C000FB0AA62BF71F792BF31B732B7308FB0078
:1006D0007208FA007108F9007008F800F301F201DD
:1006E000F101F001492BF301F201F101F001F00AEF
:1006F0000034F309F209F109F009FC17462BF80A56
:100700000319F90A0319FA0A0319FB0A7408780293
:10071000031D492B75087902031D492B76087A02BF
:10072000031D492B77087B02031D492BFB01FA01AE
:10073000F901F801F00A0319F10A0319F20A031981
:10074000F30AF31F492BA0012016FF34A0017C1CE3
:10075000AA2BE124003F080003138312AE01AF016E
:10076000B2012D0884000008B100FC247008003A92
:100770000319E52BA9247008B0002E082C07F100FE
:100780007108840071088400700880003008310608
:10079000031DCF2B2F082E02B200AF0AD12BAF01C1
:1007A000B2012F082D0784000008F1007108B10084
:1007B0007108003A031DDD2BE62BAE0A2E08143C0F
:1007C0000318E52B1330B200E62BB52B32082C07AB
:1007D000F000700884007008840080010800031392
:1007E0008312FD01F31F012CF009F109F209F3094D
:1007F000F00A0319F10A0319F20A0319F30A813006
:10080000FD07F71F0F2CF409F509F609F709F40A9B
:100810000319F50A0319F60A0319F70AFD0A2A242F
:100820007D1C292CF009F109F209F309F809F909ED
:10083000FA09FB09F00A0319F10A0319F20A03196C
:10084000F30A0319F80A0319F90A0319FA0A031932
:10085000FB0A0800031383122230FC00F801F9019F
:10086000FA01FB01FC030319602C0310FB0CFA0CCA
:10087000F90CF80CF30CF20CF10CF00C031C322CFC
:10088000FC030319522C7408F80775080318750F38
:10089000F90776080318760FFA0777080318770F19
:1008A000FB07362C7408F80775080318750FF9074D
:1008B00076080318760FFA0777080318770FFB07F7
:1008C000080003138312F801F9011030FC00710DC8
:1008D000F80DF90D7408F8027508031C750FF9027C
:1008E0000318792C7408F80775080318750FF907B1
:1008F0000310F00DF10DFC0B672C0800031383129D
:10090000AD012C0884000008AE002E08003A03193F
:10091000932C2E08B900CF24AD0A2D082C07840093
:100920000008AE00852C080003138316981690303B
:100930008312980083168616861783120C08F1001E
:100940000030F11A0130F1007108013A03199D2CB1
:100950000800031383121A08B9001808F1000030C8
:10096000F1180130F1007108013A031DB92C181279
:1009700018163908F0000800031383122C0893009E
:1009800083161408F1000130F1057108003A031DC7
:10099000CB2C0000C02C83121308AD0008000313F9
:1009A00083161808F1000030F1180130F1007108C9
:1009B000003A031DDD2C0000CF2C8312390899006A
:1009C000080003138312FB09FA09F909F809F80A68
:1009D0000319F90A0319FA0A0319FB0A0800031399
:1009E000831687130613061683129401403083166C
:1009F0009400831294160800031383120C08F1006C
:100A00000030F11A0130F1007108B9003908F00026
:100A10000800FF3FFF3FFF3FFF3FFF3FFF3FFF3F1C
:02400E00C430BC
:00000001FF
